{
  "_format": "hh-sol-artifact-1",
  "contractName": "IntentResolutionReceiver",
  "sourceName": "contracts/IntentResolutionReceiver.sol",
  "abi": [
    {
      "anonymous": false,
      "inputs": [
        {
          "indexed": true,
          "internalType": "address",
          "name": "target",
          "type": "address"
        },
        {
          "indexed": true,
          "internalType": "address",
          "name": "assetOut",
          "type": "address"
        },
        {
          "indexed": false,
          "internalType": "uint256",
          "name": "amount",
          "type": "uint256"
        }
      ],
      "name": "Forwarded",
      "type": "event"
    },
    {
      "inputs": [
        {
          "internalType": "address",
          "name": "user",
          "type": "address"
        },
        {
          "internalType": "uint256",
          "name": "intentId",
          "type": "uint256"
        },
        {
          "internalType": "address",
          "name": "assetIn",
          "type": "address"
        },
        {
          "internalType": "uint256",
          "name": "amountIn",
          "type": "uint256"
        },
        {
          "internalType": "address",
          "name": "assetOut",
          "type": "address"
        },
        {
          "internalType": "uint256",
          "name": "amountOut",
          "type": "uint256"
        },
        {
          "internalType": "bytes",
          "name": "data",
          "type": "bytes"
        }
      ],
      "name": "execute",
      "outputs": [
        {
          "internalType": "bytes4",
          "name": "",
          "type": "bytes4"
        }
      ],
      "stateMutability": "nonpayable",
      "type": "function"
    }
  ],
  "bytecode": "0x608060405234801561001057600080fd5b50610689806100206000396000f3fe608060405234801561001057600080fd5b506004361061002b5760003560e01c806378f3095214610030575b600080fd5b61004a6004803603810190610045919061032f565b610060565b604051610057919061042c565b60405180910390f35b60008083838101906100729190610485565b905060008673ffffffffffffffffffffffffffffffffffffffff166370a08231306040518263ffffffff1660e01b81526004016100af91906104c1565b602060405180830381865afa1580156100cc573d6000803e3d6000fd5b505050506040513d601f19601f820116820180604052508101906100f091906104f1565b90508673ffffffffffffffffffffffffffffffffffffffff1663a9059cbb83836040518363ffffffff1660e01b815260040161012d92919061052d565b6020604051808303816000875af115801561014c573d6000803e3d6000fd5b505050506040513d601f19601f82011682018060405250810190610170919061058e565b6101af576040517f08c379a00000000000000000000000000000000000000000000000000000000081526004016101a690610618565b60405180910390fd5b8673ffffffffffffffffffffffffffffffffffffffff168273ffffffffffffffffffffffffffffffffffffffff167f0571d85fc9cce8d2ebf18e983becef6cc884e37503f377f9b6383d65850f96d28360405161020c9190610638565b60405180910390a36378f3095260e01b9250505098975050505050505050565b600080fd5b600080fd5b600073ffffffffffffffffffffffffffffffffffffffff82169050919050565b600061026182610236565b9050919050565b61027181610256565b811461027c57600080fd5b50565b60008135905061028e81610268565b92915050565b6000819050919050565b6102a781610294565b81146102b257600080fd5b50565b6000813590506102c48161029e565b92915050565b600080fd5b600080fd5b600080fd5b60008083601f8401126102ef576102ee6102ca565b5b8235905067ffffffffffffffff81111561030c5761030b6102cf565b5b602083019150836001820283011115610328576103276102d4565b5b9250929050565b60008060008060008060008060e0898b03121561034f5761034e61022c565b5b600061035d8b828c0161027f565b985050602061036e8b828c016102b5565b975050604061037f8b828c0161027f565b96505060606103908b828c016102b5565b95505060806103a18b828c0161027f565b94505060a06103b28b828c016102b5565b93505060c089013567ffffffffffffffff8111156103d3576103d2610231565b5b6103df8b828c016102d9565b92509250509295985092959890939650565b60007fffffffff0000000000000000000000000000000000000000000000000000000082169050919050565b610426816103f1565b82525050565b6000602082019050610441600083018461041d565b92915050565b600061045282610236565b9050919050565b61046281610447565b811461046d57600080fd5b50565b60008135905061047f81610459565b92915050565b60006020828403121561049b5761049a61022c565b5b60006104a984828501610470565b91505092915050565b6104bb81610256565b82525050565b60006020820190506104d660008301846104b2565b92915050565b6000815190506104eb8161029e565b92915050565b6000602082840312156105075761050661022c565b5b6000610515848285016104dc565b91505092915050565b61052781610294565b82525050565b600060408201905061054260008301856104b2565b61054f602083018461051e565b9392505050565b60008115159050919050565b61056b81610556565b811461057657600080fd5b50565b60008151905061058881610562565b92915050565b6000602082840312156105a4576105a361022c565b5b60006105b284828501610579565b91505092915050565b600082825260208201905092915050565b7f7472616e73666572206661696c65640000000000000000000000000000000000600082015250565b6000610602600f836105bb565b915061060d826105cc565b602082019050919050565b60006020820190508181036000830152610631816105f5565b9050919050565b600060208201905061064d600083018461051e565b9291505056fea2646970667358221220eca1f7a86ea5e504777fcd5223a7eaab38583358fe4af951a370fd812f9b463364736f6c63430008180033",
  "linkReferences": {},
  "deployedLinkReferences": {}
}