{
  "_format": "hh-sol-artifact-1",
  "contractName": "LogOrderProbe",
  "sourceName": "contracts/LogOrderProbe.sol",
  "abi": [
    {
      "anonymous": false,
      "inputs": [
        {
          "indexed": false,
          "internalType": "uint256",
          "name": "idx",
          "type": "uint256"
        }
      ],
      "name": "Marker",
      "type": "event"
    },
    {
      "inputs": [
        {
          "internalType": "address",
          "name": "token",
          "type": "address"
        },
        {
          "internalType": "address",
          "name": "to",
          "type": "address"
        },
        {
          "internalType": "uint256",
          "name": "amount",
          "type": "uint256"
        }
      ],
      "name": "exercise",
      "outputs": [],
      "stateMutability": "nonpayable",
      "type": "function"
    }
  ],
  "bytecode": "0x608060405234801561001057600080fd5b506103c4806100206000396000f3fe608060405234801561001057600080fd5b506004361061002b5760003560e01c8063430c930414610030575b600080fd5b61004a600480360381019061004591906101d9565b61004c565b005b7f83264c98256454386201e4c55918ea57058c5c0052e60bd0b0f9a8fd2f3c1b24600060405161007c9190610271565b60405180910390a18273ffffffffffffffffffffffffffffffffffffffff1663a9059cbb83836040518363ffffffff1660e01b81526004016100bf9291906102aa565b6020604051808303816000875af11580156100de573d6000803e3d6000fd5b505050506040513d601f19601f82011682018060405250810190610102919061030b565b507f83264c98256454386201e4c55918ea57058c5c0052e60bd0b0f9a8fd2f3c1b2460016040516101339190610373565b60405180910390a1505050565b600080fd5b600073ffffffffffffffffffffffffffffffffffffffff82169050919050565b600061017082610145565b9050919050565b61018081610165565b811461018b57600080fd5b50565b60008135905061019d81610177565b92915050565b6000819050919050565b6101b6816101a3565b81146101c157600080fd5b50565b6000813590506101d3816101ad565b92915050565b6000806000606084860312156101f2576101f1610140565b5b60006102008682870161018e565b93505060206102118682870161018e565b9250506040610222868287016101c4565b9150509250925092565b6000819050919050565b6000819050919050565b600061025b6102566102518461022c565b610236565b6101a3565b9050919050565b61026b81610240565b82525050565b60006020820190506102866000830184610262565b92915050565b61029581610165565b82525050565b6102a4816101a3565b82525050565b60006040820190506102bf600083018561028c565b6102cc602083018461029b565b9392505050565b60008115159050919050565b6102e8816102d3565b81146102f357600080fd5b50565b600081519050610305816102df565b92915050565b60006020828403121561032157610320610140565b5b600061032f848285016102f6565b91505092915050565b6000819050919050565b600061035d61035861035384610338565b610236565b6101a3565b9050919050565b61036d81610342565b82525050565b60006020820190506103886000830184610364565b9291505056fea2646970667358221220737d96a602a1437aee784f9959dfb12b28e1ed46dc9f2f6dda81d7bb84adf3b164736f6c63430008180033",
  "linkReferences": {},
  "deployedLinkReferences": {}
}