{
  "_format": "hh-sol-artifact-1",
  "contractName": "RevertingDispatcher",
  "sourceName": "contracts/RevertingDispatcher.sol",
  "abi": [
    {
      "anonymous": false,
      "inputs": [
        {
          "indexed": false,
          "internalType": "uint256",
          "name": "idx",
          "type": "uint256"
        }
      ],
      "name": "Marker",
      "type": "event"
    },
    {
      "inputs": [
        {
          "internalType": "address",
          "name": "dispatcher",
          "type": "address"
        },
        {
          "internalType": "bytes",
          "name": "sub_call_data",
          "type": "bytes"
        }
      ],
      "name": "try_dispatch_then_revert",
      "outputs": [],
      "stateMutability": "nonpayable",
      "type": "function"
    }
  ],
  "bytecode": "0x608060405234801561001057600080fd5b50610530806100206000396000f3fe608060405234801561001057600080fd5b506004361061002b5760003560e01c80634351d80014610030575b600080fd5b61004a60048036038101906100459190610273565b61004c565b005b7f83264c98256454386201e4c55918ea57058c5c0052e60bd0b0f9a8fd2f3c1b24600060405161007c9190610322565b60405180910390a160008373ffffffffffffffffffffffffffffffffffffffff1683836040516100ad92919061037c565b6000604051808303816000865af19150503d80600081146100ea576040519150601f19603f3d011682016040523d82523d6000602084013e6100ef565b606091505b5050905080610133576040517f08c379a000000000000000000000000000000000000000000000000000000000815260040161012a906103f2565b60405180910390fd5b7f83264c98256454386201e4c55918ea57058c5c0052e60bd0b0f9a8fd2f3c1b246001604051610163919061044d565b60405180910390a16040517f08c379a000000000000000000000000000000000000000000000000000000000815260040161019d906104da565b60405180910390fd5b600080fd5b600080fd5b600073ffffffffffffffffffffffffffffffffffffffff82169050919050565b60006101db826101b0565b9050919050565b6101eb816101d0565b81146101f657600080fd5b50565b600081359050610208816101e2565b92915050565b600080fd5b600080fd5b600080fd5b60008083601f8401126102335761023261020e565b5b8235905067ffffffffffffffff8111156102505761024f610213565b5b60208301915083600182028301111561026c5761026b610218565b5b9250929050565b60008060006040848603121561028c5761028b6101a6565b5b600061029a868287016101f9565b935050602084013567ffffffffffffffff8111156102bb576102ba6101ab565b5b6102c78682870161021d565b92509250509250925092565b6000819050919050565b6000819050919050565b6000819050919050565b600061030c610307610302846102d3565b6102e7565b6102dd565b9050919050565b61031c816102f1565b82525050565b60006020820190506103376000830184610313565b92915050565b600081905092915050565b82818337600083830152505050565b6000610363838561033d565b9350610370838584610348565b82840190509392505050565b6000610389828486610357565b91508190509392505050565b600082825260208201905092915050565b7f6469737061746368206661696c65640000000000000000000000000000000000600082015250565b60006103dc600f83610395565b91506103e7826103a6565b602082019050919050565b6000602082019050818103600083015261040b816103cf565b9050919050565b6000819050919050565b600061043761043261042d84610412565b6102e7565b6102dd565b9050919050565b6104478161041c565b82525050565b6000602082019050610462600083018461043e565b92915050565b7f696e74656e74696f6e616c20726576657274206166746572206469737061746360008201527f6800000000000000000000000000000000000000000000000000000000000000602082015250565b60006104c4602183610395565b91506104cf82610468565b604082019050919050565b600060208201905081810360008301526104f3816104b7565b905091905056fea264697066735822122006a2182eb335756d2c37f9d3e077a3a7856fa3899cb4f90410c9cca0029aee4464736f6c63430008180033",
  "linkReferences": {},
  "deployedLinkReferences": {}
}