{
  "address": "0xC130c89F2b1066a77BD820AAFebCF4519D0103D8",
  "abi": [
    {
      "inputs": [
        {
          "internalType": "address",
          "name": "admin",
          "type": "address"
        }
      ],
      "stateMutability": "nonpayable",
      "type": "constructor"
    },
    {
      "anonymous": false,
      "inputs": [
        {
          "indexed": true,
          "internalType": "address",
          "name": "owner",
          "type": "address"
        },
        {
          "indexed": true,
          "internalType": "address",
          "name": "spender",
          "type": "address"
        },
        {
          "indexed": false,
          "internalType": "uint256",
          "name": "value",
          "type": "uint256"
        }
      ],
      "name": "Approval",
      "type": "event"
    },
    {
      "anonymous": false,
      "inputs": [
        {
          "indexed": true,
          "internalType": "address",
          "name": "facilitatorAddress",
          "type": "address"
        },
        {
          "indexed": true,
          "internalType": "bytes32",
          "name": "label",
          "type": "bytes32"
        },
        {
          "indexed": false,
          "internalType": "uint256",
          "name": "bucketCapacity",
          "type": "uint256"
        }
      ],
      "name": "FacilitatorAdded",
      "type": "event"
    },
    {
      "anonymous": false,
      "inputs": [
        {
          "indexed": true,
          "internalType": "address",
          "name": "facilitatorAddress",
          "type": "address"
        },
        {
          "indexed": false,
          "internalType": "uint256",
          "name": "oldCapacity",
          "type": "uint256"
        },
        {
          "indexed": false,
          "internalType": "uint256",
          "name": "newCapacity",
          "type": "uint256"
        }
      ],
      "name": "FacilitatorBucketCapacityUpdated",
      "type": "event"
    },
    {
      "anonymous": false,
      "inputs": [
        {
          "indexed": true,
          "internalType": "address",
          "name": "facilitatorAddress",
          "type": "address"
        },
        {
          "indexed": false,
          "internalType": "uint256",
          "name": "oldLevel",
          "type": "uint256"
        },
        {
          "indexed": false,
          "internalType": "uint256",
          "name": "newLevel",
          "type": "uint256"
        }
      ],
      "name": "FacilitatorBucketLevelUpdated",
      "type": "event"
    },
    {
      "anonymous": false,
      "inputs": [
        {
          "indexed": true,
          "internalType": "address",
          "name": "facilitatorAddress",
          "type": "address"
        }
      ],
      "name": "FacilitatorRemoved",
      "type": "event"
    },
    {
      "anonymous": false,
      "inputs": [
        {
          "indexed": true,
          "internalType": "bytes32",
          "name": "role",
          "type": "bytes32"
        },
        {
          "indexed": true,
          "internalType": "bytes32",
          "name": "previousAdminRole",
          "type": "bytes32"
        },
        {
          "indexed": true,
          "internalType": "bytes32",
          "name": "newAdminRole",
          "type": "bytes32"
        }
      ],
      "name": "RoleAdminChanged",
      "type": "event"
    },
    {
      "anonymous": false,
      "inputs": [
        {
          "indexed": true,
          "internalType": "bytes32",
          "name": "role",
          "type": "bytes32"
        },
        {
          "indexed": true,
          "internalType": "address",
          "name": "account",
          "type": "address"
        },
        {
          "indexed": true,
          "internalType": "address",
          "name": "sender",
          "type": "address"
        }
      ],
      "name": "RoleGranted",
      "type": "event"
    },
    {
      "anonymous": false,
      "inputs": [
        {
          "indexed": true,
          "internalType": "bytes32",
          "name": "role",
          "type": "bytes32"
        },
        {
          "indexed": true,
          "internalType": "address",
          "name": "account",
          "type": "address"
        },
        {
          "indexed": true,
          "internalType": "address",
          "name": "sender",
          "type": "address"
        }
      ],
      "name": "RoleRevoked",
      "type": "event"
    },
    {
      "anonymous": false,
      "inputs": [
        {
          "indexed": true,
          "internalType": "address",
          "name": "from",
          "type": "address"
        },
        {
          "indexed": true,
          "internalType": "address",
          "name": "to",
          "type": "address"
        },
        {
          "indexed": false,
          "internalType": "uint256",
          "name": "value",
          "type": "uint256"
        }
      ],
      "name": "Transfer",
      "type": "event"
    },
    {
      "inputs": [],
      "name": "BUCKET_MANAGER_ROLE",
      "outputs": [
        {
          "internalType": "bytes32",
          "name": "",
          "type": "bytes32"
        }
      ],
      "stateMutability": "view",
      "type": "function"
    },
    {
      "inputs": [],
      "name": "DEFAULT_ADMIN_ROLE",
      "outputs": [
        {
          "internalType": "bytes32",
          "name": "",
          "type": "bytes32"
        }
      ],
      "stateMutability": "view",
      "type": "function"
    },
    {
      "inputs": [],
      "name": "DOMAIN_SEPARATOR",
      "outputs": [
        {
          "internalType": "bytes32",
          "name": "",
          "type": "bytes32"
        }
      ],
      "stateMutability": "view",
      "type": "function"
    },
    {
      "inputs": [],
      "name": "FACILITATOR_MANAGER_ROLE",
      "outputs": [
        {
          "internalType": "bytes32",
          "name": "",
          "type": "bytes32"
        }
      ],
      "stateMutability": "view",
      "type": "function"
    },
    {
      "inputs": [],
      "name": "PERMIT_TYPEHASH",
      "outputs": [
        {
          "internalType": "bytes32",
          "name": "",
          "type": "bytes32"
        }
      ],
      "stateMutability": "view",
      "type": "function"
    },
    {
      "inputs": [
        {
          "internalType": "address",
          "name": "facilitatorAddress",
          "type": "address"
        },
        {
          "internalType": "string",
          "name": "facilitatorLabel",
          "type": "string"
        },
        {
          "internalType": "uint128",
          "name": "bucketCapacity",
          "type": "uint128"
        }
      ],
      "name": "addFacilitator",
      "outputs": [],
      "stateMutability": "nonpayable",
      "type": "function"
    },
    {
      "inputs": [
        {
          "internalType": "address",
          "name": "",
          "type": "address"
        },
        {
          "internalType": "address",
          "name": "",
          "type": "address"
        }
      ],
      "name": "allowance",
      "outputs": [
        {
          "internalType": "uint256",
          "name": "",
          "type": "uint256"
        }
      ],
      "stateMutability": "view",
      "type": "function"
    },
    {
      "inputs": [
        {
          "internalType": "address",
          "name": "spender",
          "type": "address"
        },
        {
          "internalType": "uint256",
          "name": "amount",
          "type": "uint256"
        }
      ],
      "name": "approve",
      "outputs": [
        {
          "internalType": "bool",
          "name": "",
          "type": "bool"
        }
      ],
      "stateMutability": "nonpayable",
      "type": "function"
    },
    {
      "inputs": [
        {
          "internalType": "address",
          "name": "",
          "type": "address"
        }
      ],
      "name": "balanceOf",
      "outputs": [
        {
          "internalType": "uint256",
          "name": "",
          "type": "uint256"
        }
      ],
      "stateMutability": "view",
      "type": "function"
    },
    {
      "inputs": [
        {
          "internalType": "uint256",
          "name": "amount",
          "type": "uint256"
        }
      ],
      "name": "burn",
      "outputs": [],
      "stateMutability": "nonpayable",
      "type": "function"
    },
    {
      "inputs": [],
      "name": "decimals",
      "outputs": [
        {
          "internalType": "uint8",
          "name": "",
          "type": "uint8"
        }
      ],
      "stateMutability": "view",
      "type": "function"
    },
    {
      "inputs": [
        {
          "internalType": "address",
          "name": "facilitator",
          "type": "address"
        }
      ],
      "name": "getFacilitator",
      "outputs": [
        {
          "components": [
            {
              "internalType": "uint128",
              "name": "bucketCapacity",
              "type": "uint128"
            },
            {
              "internalType": "uint128",
              "name": "bucketLevel",
              "type": "uint128"
            },
            {
              "internalType": "string",
              "name": "label",
              "type": "string"
            }
          ],
          "internalType": "struct IGhoToken.Facilitator",
          "name": "",
          "type": "tuple"
        }
      ],
      "stateMutability": "view",
      "type": "function"
    },
    {
      "inputs": [
        {
          "internalType": "address",
          "name": "facilitator",
          "type": "address"
        }
      ],
      "name": "getFacilitatorBucket",
      "outputs": [
        {
          "internalType": "uint256",
          "name": "",
          "type": "uint256"
        },
        {
          "internalType": "uint256",
          "name": "",
          "type": "uint256"
        }
      ],
      "stateMutability": "view",
      "type": "function"
    },
    {
      "inputs": [],
      "name": "getFacilitatorsList",
      "outputs": [
        {
          "internalType": "address[]",
          "name": "",
          "type": "address[]"
        }
      ],
      "stateMutability": "view",
      "type": "function"
    },
    {
      "inputs": [
        {
          "internalType": "bytes32",
          "name": "role",
          "type": "bytes32"
        }
      ],
      "name": "getRoleAdmin",
      "outputs": [
        {
          "internalType": "bytes32",
          "name": "",
          "type": "bytes32"
        }
      ],
      "stateMutability": "view",
      "type": "function"
    },
    {
      "inputs": [
        {
          "internalType": "bytes32",
          "name": "role",
          "type": "bytes32"
        },
        {
          "internalType": "address",
          "name": "account",
          "type": "address"
        }
      ],
      "name": "grantRole",
      "outputs": [],
      "stateMutability": "nonpayable",
      "type": "function"
    },
    {
      "inputs": [
        {
          "internalType": "bytes32",
          "name": "role",
          "type": "bytes32"
        },
        {
          "internalType": "address",
          "name": "account",
          "type": "address"
        }
      ],
      "name": "hasRole",
      "outputs": [
        {
          "internalType": "bool",
          "name": "",
          "type": "bool"
        }
      ],
      "stateMutability": "view",
      "type": "function"
    },
    {
      "inputs": [
        {
          "internalType": "address",
          "name": "account",
          "type": "address"
        },
        {
          "internalType": "uint256",
          "name": "amount",
          "type": "uint256"
        }
      ],
      "name": "mint",
      "outputs": [],
      "stateMutability": "nonpayable",
      "type": "function"
    },
    {
      "inputs": [],
      "name": "name",
      "outputs": [
        {
          "internalType": "string",
          "name": "",
          "type": "string"
        }
      ],
      "stateMutability": "view",
      "type": "function"
    },
    {
      "inputs": [
        {
          "internalType": "address",
          "name": "",
          "type": "address"
        }
      ],
      "name": "nonces",
      "outputs": [
        {
          "internalType": "uint256",
          "name": "",
          "type": "uint256"
        }
      ],
      "stateMutability": "view",
      "type": "function"
    },
    {
      "inputs": [
        {
          "internalType": "address",
          "name": "owner",
          "type": "address"
        },
        {
          "internalType": "address",
          "name": "spender",
          "type": "address"
        },
        {
          "internalType": "uint256",
          "name": "value",
          "type": "uint256"
        },
        {
          "internalType": "uint256",
          "name": "deadline",
          "type": "uint256"
        },
        {
          "internalType": "uint8",
          "name": "v",
          "type": "uint8"
        },
        {
          "internalType": "bytes32",
          "name": "r",
          "type": "bytes32"
        },
        {
          "internalType": "bytes32",
          "name": "s",
          "type": "bytes32"
        }
      ],
      "name": "permit",
      "outputs": [],
      "stateMutability": "nonpayable",
      "type": "function"
    },
    {
      "inputs": [
        {
          "internalType": "address",
          "name": "facilitatorAddress",
          "type": "address"
        }
      ],
      "name": "removeFacilitator",
      "outputs": [],
      "stateMutability": "nonpayable",
      "type": "function"
    },
    {
      "inputs": [
        {
          "internalType": "bytes32",
          "name": "role",
          "type": "bytes32"
        },
        {
          "internalType": "address",
          "name": "account",
          "type": "address"
        }
      ],
      "name": "renounceRole",
      "outputs": [],
      "stateMutability": "nonpayable",
      "type": "function"
    },
    {
      "inputs": [
        {
          "internalType": "bytes32",
          "name": "role",
          "type": "bytes32"
        },
        {
          "internalType": "address",
          "name": "account",
          "type": "address"
        }
      ],
      "name": "revokeRole",
      "outputs": [],
      "stateMutability": "nonpayable",
      "type": "function"
    },
    {
      "inputs": [
        {
          "internalType": "address",
          "name": "facilitator",
          "type": "address"
        },
        {
          "internalType": "uint128",
          "name": "newCapacity",
          "type": "uint128"
        }
      ],
      "name": "setFacilitatorBucketCapacity",
      "outputs": [],
      "stateMutability": "nonpayable",
      "type": "function"
    },
    {
      "inputs": [
        {
          "internalType": "bytes4",
          "name": "interfaceId",
          "type": "bytes4"
        }
      ],
      "name": "supportsInterface",
      "outputs": [
        {
          "internalType": "bool",
          "name": "",
          "type": "bool"
        }
      ],
      "stateMutability": "view",
      "type": "function"
    },
    {
      "inputs": [],
      "name": "symbol",
      "outputs": [
        {
          "internalType": "string",
          "name": "",
          "type": "string"
        }
      ],
      "stateMutability": "view",
      "type": "function"
    },
    {
      "inputs": [],
      "name": "totalSupply",
      "outputs": [
        {
          "internalType": "uint256",
          "name": "",
          "type": "uint256"
        }
      ],
      "stateMutability": "view",
      "type": "function"
    },
    {
      "inputs": [
        {
          "internalType": "address",
          "name": "to",
          "type": "address"
        },
        {
          "internalType": "uint256",
          "name": "amount",
          "type": "uint256"
        }
      ],
      "name": "transfer",
      "outputs": [
        {
          "internalType": "bool",
          "name": "",
          "type": "bool"
        }
      ],
      "stateMutability": "nonpayable",
      "type": "function"
    },
    {
      "inputs": [
        {
          "internalType": "address",
          "name": "from",
          "type": "address"
        },
        {
          "internalType": "address",
          "name": "to",
          "type": "address"
        },
        {
          "internalType": "uint256",
          "name": "amount",
          "type": "uint256"
        }
      ],
      "name": "transferFrom",
      "outputs": [
        {
          "internalType": "bool",
          "name": "",
          "type": "bool"
        }
      ],
      "stateMutability": "nonpayable",
      "type": "function"
    }
  ],
  "transactionHash": "0x85e9466d34c72a637c64989fe42ab1f753e37b2766b68e4b7d8d9596791ac3e7",
  "args": [
    "0x3dC06FAA422A0Cf6014847031dDc1DeC7B63F76a"
  ],
  "numDeployments": 1,
  "solcInputHash": "d58a981f0cfbc24cb4ff38c13548320b",
  "bytecode": "0x60e06040523480156200001157600080fd5b5060405162002bd538038062002bd58339810160408190526200003491620002cb565b604080518082018252600f81526e243cb23930ba32b2102237b63630b960891b6020808301918252835180850190945260068452652427a62620a960d11b9084015281519192916012916200008d916000919062000225565b508151620000a390600190602085019062000225565b5060ff81166080524660a052620000b9620000d5565b60c05250620000ce9150600090508262000171565b50620003de565b60007f8b73c3c69bb8fe3d512ecc4cf759cc79239f7b179b0ffacaa9a75d522b39400f60006040516200010991906200033a565b6040805191829003822060208301939093528101919091527fc89efdaa54c0f20c7adf612882df0950f5a951637e0307cdcb4c672f298b8bc660608201524660808201523060a082015260c00160405160208183030381529060405280519060200120905090565b6200017d828262000181565b5050565b60008281526006602090815260408083206001600160a01b038516845290915290205460ff166200017d5760008281526006602090815260408083206001600160a01b03851684529091529020805460ff19166001179055620001e13390565b6001600160a01b0316816001600160a01b0316837f2f8788117e7eff1d82e926ec794901d17c78024a50270940304540a733656f0d60405160405180910390a45050565b8280546200023390620002fd565b90600052602060002090601f016020900481019282620002575760008555620002a2565b82601f106200027257805160ff1916838001178555620002a2565b82800160010185558215620002a2579182015b82811115620002a257825182559160200191906001019062000285565b50620002b0929150620002b4565b5090565b5b80821115620002b05760008155600101620002b5565b600060208284031215620002de57600080fd5b81516001600160a01b0381168114620002f657600080fd5b9392505050565b600181811c908216806200031257607f821691505b602082108114156200033457634e487b7160e01b600052602260045260246000fd5b50919050565b600080835481600182811c9150808316806200035757607f831692505b60208084108214156200037857634e487b7160e01b86526022600452602486fd5b8180156200038f5760018114620003a157620003d0565b60ff19861689528489019650620003d0565b60008a81526020902060005b86811015620003c85781548b820152908501908301620003ad565b505084890196505b509498975050505050505050565b60805160a05160c0516127c76200040e60003960006108b101526000610881015260006102d201526127c76000f3fe608060405234801561001057600080fd5b50600436106101da5760003560e01c8063550d996411610104578063a217fddf116100a2578063d46ec0ed11610071578063d46ec0ed146104ed578063d505accf1461050d578063d547741f14610520578063dd62ed3e1461053357600080fd5b8063a217fddf14610449578063a9059cbb14610451578063aa02f94a14610464578063af93df57146104da57600080fd5b80637fc24def116100de5780637fc24def146103d557806391d14854146103e857806395d89b411461042e578063a11812ba1461043657600080fd5b8063550d99641461036e57806370a08231146103955780637ecebe00146103b557600080fd5b80632f2ff15d1161017c57806336568abe1161014b57806336568abe1461030e57806340c10f191461032157806342966c6814610334578063433bef441461034757600080fd5b80632f2ff15d1461029157806330adf81f146102a6578063313ce567146102cd5780633644e5151461030657600080fd5b806318160ddd116101b857806318160ddd1461022f5780631ec90f2e1461024657806323b872dd1461025b578063248a9ca31461026e57600080fd5b806301ffc9a7146101df57806306fdde0314610207578063095ea7b31461021c575b600080fd5b6101f26101ed36600461209c565b61055e565b60405190151581526020015b60405180910390f35b61020f6105f7565b6040516101fe9190612158565b6101f261022a366004612194565b610685565b61023860025481565b6040519081526020016101fe565b61024e6106fe565b6040516101fe91906121be565b6101f2610269366004612218565b61070f565b61023861027c366004612254565b60009081526006602052604090206001015490565b6102a461029f36600461226d565b610853565b005b6102387f6e71edae12b1b97f4d1f60370fef10105fa2faae0126114a169c64845d6126c981565b6102f47f000000000000000000000000000000000000000000000000000000000000000081565b60405160ff90911681526020016101fe565b61023861087d565b6102a461031c36600461226d565b6108d3565b6102a461032f366004612194565b61098b565b6102a4610342366004612254565b610b59565b6102387f5e20732f79076148980e17b6ce9f22756f85058fe2765420ed48a504bef5a8bc81565b6102387fc7f115822aabac0cd6b9d21b08c0c63819451a58157aecad689d1b5674fad40881565b6102386103a3366004612299565b60036020526000908152604090205481565b6102386103c3366004612299565b60056020526000908152604090205481565b6102a46103e33660046122d4565b610c84565b6101f26103f636600461226d565b600091825260066020908152604080842073ffffffffffffffffffffffffffffffffffffffff93909316845291905290205460ff1690565b61020f610eb2565b6102a4610444366004612299565b610ebf565b610238600081565b6101f261045f366004612194565b6110e8565b6104c5610472366004612299565b73ffffffffffffffffffffffffffffffffffffffff166000908152600760205260409020546fffffffffffffffffffffffffffffffff808216927001000000000000000000000000000000009092041690565b604080519283526020830191909152016101fe565b6102a46104e8366004612368565b61116d565b6105006104fb366004612299565b6112d3565b6040516101fe9190612392565b6102a461051b3660046123df565b6113ef565b6102a461052e36600461226d565b61171b565b610238610541366004612452565b600460209081526000928352604080842090915290825290205481565b60007fffffffff0000000000000000000000000000000000000000000000000000000082167f7965db0b0000000000000000000000000000000000000000000000000000000014806105f157507f01ffc9a7000000000000000000000000000000000000000000000000000000007fffffffff000000000000000000000000000000000000000000000000000000008316145b92915050565b600080546106049061247c565b80601f01602080910402602001604051908101604052809291908181526020018280546106309061247c565b801561067d5780601f106106525761010080835404028352916020019161067d565b820191906000526020600020905b81548152906001019060200180831161066057829003601f168201915b505050505081565b33600081815260046020908152604080832073ffffffffffffffffffffffffffffffffffffffff8716808552925280832085905551919290917f8c5be1e5ebec7d5bd14f71427d1e84f3dd0314c0f7b2291e5b200ac8c7c3b925906106ed9086815260200190565b60405180910390a350600192915050565b606061070a6008611740565b905090565b73ffffffffffffffffffffffffffffffffffffffff831660009081526004602090815260408083203384529091528120547fffffffffffffffffffffffffffffffffffffffffffffffffffffffffffffffff81146107a35761077183826124ff565b73ffffffffffffffffffffffffffffffffffffffff861660009081526004602090815260408083203384529091529020555b73ffffffffffffffffffffffffffffffffffffffff8516600090815260036020526040812080548592906107d89084906124ff565b909155505073ffffffffffffffffffffffffffffffffffffffff808516600081815260036020526040908190208054870190555190918716907fddf252ad1be2c89b69c2b068fc378daa952ba7f163c4a11628f55a4df523b3ef906108409087815260200190565b60405180910390a3506001949350505050565b60008281526006602052604090206001015461086e81611754565b6108788383611761565b505050565b60007f000000000000000000000000000000000000000000000000000000000000000046146108ae5761070a611855565b507f000000000000000000000000000000000000000000000000000000000000000090565b73ffffffffffffffffffffffffffffffffffffffff8116331461097d576040517f08c379a000000000000000000000000000000000000000000000000000000000815260206004820152602f60248201527f416363657373436f6e74726f6c3a2063616e206f6e6c792072656e6f756e636560448201527f20726f6c657320666f722073656c66000000000000000000000000000000000060648201526084015b60405180910390fd5b61098782826118ef565b5050565b600081116109f5576040517f08c379a000000000000000000000000000000000000000000000000000000000815260206004820152601360248201527f494e56414c49445f4d494e545f414d4f554e54000000000000000000000000006044820152606401610974565b336000908152600760205260408120805490917001000000000000000000000000000000009091046fffffffffffffffffffffffffffffffff1690610a3a8483612516565b83549091506fffffffffffffffffffffffffffffffff16811115610adf576040517f08c379a0000000000000000000000000000000000000000000000000000000008152602060048201526024808201527f464143494c495441544f525f4255434b45545f43415041434954595f4558434560448201527f45444544000000000000000000000000000000000000000000000000000000006064820152608401610974565b82546fffffffffffffffffffffffffffffffff808316700100000000000000000000000000000000029116178355610b1785856119aa565b604080518381526020810183905233917facb6de9209e4f34974cb165eef5738f0cf0b4ea9819ef30d30f0f7d81272ab82910160405180910390a25050505050565b60008111610bc3576040517f08c379a000000000000000000000000000000000000000000000000000000000815260206004820152601360248201527f494e56414c49445f4255524e5f414d4f554e54000000000000000000000000006044820152606401610974565b336000908152600760205260408120805490917001000000000000000000000000000000009091046fffffffffffffffffffffffffffffffff1690610c0884836124ff565b83546fffffffffffffffffffffffffffffffff8083167001000000000000000000000000000000000291161784559050610c423385611a23565b604080518381526020810183905233917facb6de9209e4f34974cb165eef5738f0cf0b4ea9819ef30d30f0f7d81272ab8291015b60405180910390a250505050565b7f5e20732f79076148980e17b6ce9f22756f85058fe2765420ed48a504bef5a8bc610cae81611754565b73ffffffffffffffffffffffffffffffffffffffff85166000908152600760205260409020600181018054610ce29061247c565b159050610d4b576040517f08c379a000000000000000000000000000000000000000000000000000000000815260206004820152601a60248201527f464143494c495441544f525f414c52454144595f4558495354530000000000006044820152606401610974565b83610db2576040517f08c379a000000000000000000000000000000000000000000000000000000000815260206004820152600d60248201527f494e56414c49445f4c4142454c000000000000000000000000000000000000006044820152606401610974565b610dc0600182018686611faf565b5080547fffffffffffffffffffffffffffffffff00000000000000000000000000000000166fffffffffffffffffffffffffffffffff8416178155610e06600887611ab1565b508484604051602001610e1a92919061252e565b604080517fffffffffffffffffffffffffffffffffffffffffffffffffffffffffffffffe08184030181529082905280516020918201206fffffffffffffffffffffffffffffffff861683529173ffffffffffffffffffffffffffffffffffffffff8916917fdabd62626ada7b13e299389e94d768b294e5e24285ed2ffa1e5cd447c99c54ad910160405180910390a3505050505050565b600180546106049061247c565b7f5e20732f79076148980e17b6ce9f22756f85058fe2765420ed48a504bef5a8bc610ee981611754565b73ffffffffffffffffffffffffffffffffffffffff821660009081526007602052604081206001018054610f1c9061247c565b905011610f85576040517f08c379a000000000000000000000000000000000000000000000000000000000815260206004820152601a60248201527f464143494c495441544f525f444f45535f4e4f545f45584953540000000000006044820152606401610974565b73ffffffffffffffffffffffffffffffffffffffff821660009081526007602052604090205470010000000000000000000000000000000090046fffffffffffffffffffffffffffffffff161561105e576040517f08c379a000000000000000000000000000000000000000000000000000000000815260206004820152602160248201527f464143494c495441544f525f4255434b45545f4c4556454c5f4e4f545f5a455260448201527f4f000000000000000000000000000000000000000000000000000000000000006064820152608401610974565b73ffffffffffffffffffffffffffffffffffffffff82166000908152600760205260408120818155906110946001830182612051565b506110a29050600883611ad3565b5060405173ffffffffffffffffffffffffffffffffffffffff8316907fa8fe5b89f35f2ebd6f3f95a7ef215f4bd89179e10c101073ae76cffad14734cf90600090a25050565b336000908152600360205260408120805483919083906111099084906124ff565b909155505073ffffffffffffffffffffffffffffffffffffffff8316600081815260036020526040908190208054850190555133907fddf252ad1be2c89b69c2b068fc378daa952ba7f163c4a11628f55a4df523b3ef906106ed9086815260200190565b7fc7f115822aabac0cd6b9d21b08c0c63819451a58157aecad689d1b5674fad40861119781611754565b73ffffffffffffffffffffffffffffffffffffffff8316600090815260076020526040812060010180546111ca9061247c565b905011611233576040517f08c379a000000000000000000000000000000000000000000000000000000000815260206004820152601a60248201527f464143494c495441544f525f444f45535f4e4f545f45584953540000000000006044820152606401610974565b73ffffffffffffffffffffffffffffffffffffffff831660008181526007602090815260409182902080547fffffffffffffffffffffffffffffffff0000000000000000000000000000000081166fffffffffffffffffffffffffffffffff888116918217909355845192909116808352928201529092917fc795c0a4927c3b6645e4e49a5a519af936b3c1c0e4c323a3f7251063f3f4bb0e9101610c76565b60408051606080820183526000808352602080840182905283850183905273ffffffffffffffffffffffffffffffffffffffff8616825260078152908490208451928301855280546fffffffffffffffffffffffffffffffff808216855270010000000000000000000000000000000090910416918301919091526001810180549394929391928401916113669061247c565b80601f01602080910402602001604051908101604052809291908181526020018280546113929061247c565b80156113df5780601f106113b4576101008083540402835291602001916113df565b820191906000526020600020905b8154815290600101906020018083116113c257829003601f168201915b5050505050815250509050919050565b42841015611459576040517f08c379a000000000000000000000000000000000000000000000000000000000815260206004820152601760248201527f5045524d49545f444541444c494e455f455850495245440000000000000000006044820152606401610974565b600061146361087d565b73ffffffffffffffffffffffffffffffffffffffff89811660008181526005602090815260409182902080546001810190915582517f6e71edae12b1b97f4d1f60370fef10105fa2faae0126114a169c64845d6126c98184015280840194909452938c166060840152608083018b905260a083019390935260c08083018a90528151808403909101815260e0830190915280519201919091207f190100000000000000000000000000000000000000000000000000000000000061010083015261010282019290925261012281019190915261014201604080517fffffffffffffffffffffffffffffffffffffffffffffffffffffffffffffffe08184030181528282528051602091820120600080855291840180845281905260ff88169284019290925260608301869052608083018590529092509060019060a0016020604051602081039080840390855afa1580156115c2573d6000803e3d6000fd5b50506040517fffffffffffffffffffffffffffffffffffffffffffffffffffffffffffffffe0015191505073ffffffffffffffffffffffffffffffffffffffff81161580159061163d57508873ffffffffffffffffffffffffffffffffffffffff168173ffffffffffffffffffffffffffffffffffffffff16145b6116a3576040517f08c379a000000000000000000000000000000000000000000000000000000000815260206004820152600e60248201527f494e56414c49445f5349474e45520000000000000000000000000000000000006044820152606401610974565b73ffffffffffffffffffffffffffffffffffffffff90811660009081526004602090815260408083208b8516808552908352928190208a905551898152919350918a16917f8c5be1e5ebec7d5bd14f71427d1e84f3dd0314c0f7b2291e5b200ac8c7c3b925910160405180910390a350505050505050565b60008281526006602052604090206001015461173681611754565b61087883836118ef565b6060600061174d83611af5565b9392505050565b61175e8133611b51565b50565b600082815260066020908152604080832073ffffffffffffffffffffffffffffffffffffffff8516845290915290205460ff1661098757600082815260066020908152604080832073ffffffffffffffffffffffffffffffffffffffff85168452909152902080547fffffffffffffffffffffffffffffffffffffffffffffffffffffffffffffff001660011790556117f73390565b73ffffffffffffffffffffffffffffffffffffffff168173ffffffffffffffffffffffffffffffffffffffff16837f2f8788117e7eff1d82e926ec794901d17c78024a50270940304540a733656f0d60405160405180910390a45050565b60007f8b73c3c69bb8fe3d512ecc4cf759cc79239f7b179b0ffacaa9a75d522b39400f6000604051611887919061253e565b6040805191829003822060208301939093528101919091527fc89efdaa54c0f20c7adf612882df0950f5a951637e0307cdcb4c672f298b8bc660608201524660808201523060a082015260c00160405160208183030381529060405280519060200120905090565b600082815260066020908152604080832073ffffffffffffffffffffffffffffffffffffffff8516845290915290205460ff161561098757600082815260066020908152604080832073ffffffffffffffffffffffffffffffffffffffff8516808552925280832080547fffffffffffffffffffffffffffffffffffffffffffffffffffffffffffffff0016905551339285917ff6391f5c32d9c69d2a47ea670b442974b53935d1edc7fd64eb21e047a839171b9190a45050565b80600260008282546119bc9190612516565b909155505073ffffffffffffffffffffffffffffffffffffffff82166000818152600360209081526040808320805486019055518481527fddf252ad1be2c89b69c2b068fc378daa952ba7f163c4a11628f55a4df523b3ef91015b60405180910390a35050565b73ffffffffffffffffffffffffffffffffffffffff821660009081526003602052604081208054839290611a589084906124ff565b909155505060028054829003905560405181815260009073ffffffffffffffffffffffffffffffffffffffff8416907fddf252ad1be2c89b69c2b068fc378daa952ba7f163c4a11628f55a4df523b3ef90602001611a17565b600061174d8373ffffffffffffffffffffffffffffffffffffffff8416611c0b565b600061174d8373ffffffffffffffffffffffffffffffffffffffff8416611c5a565b606081600001805480602002602001604051908101604052809291908181526020018280548015611b4557602002820191906000526020600020905b815481526020019060010190808311611b31575b50505050509050919050565b600082815260066020908152604080832073ffffffffffffffffffffffffffffffffffffffff8516845290915290205460ff1661098757611b9181611d4d565b611b9c836020611d6c565b604051602001611bad929190612611565b604080517fffffffffffffffffffffffffffffffffffffffffffffffffffffffffffffffe0818403018152908290527f08c379a000000000000000000000000000000000000000000000000000000000825261097491600401612158565b6000818152600183016020526040812054611c52575081546001818101845560008481526020808220909301849055845484825282860190935260409020919091556105f1565b5060006105f1565b60008181526001830160205260408120548015611d43576000611c7e6001836124ff565b8554909150600090611c92906001906124ff565b9050818114611cf7576000866000018281548110611cb257611cb2612692565b9060005260206000200154905080876000018481548110611cd557611cd5612692565b6000918252602080832090910192909255918252600188019052604090208390555b8554869080611d0857611d086126c1565b6001900381819060005260206000200160009055905585600101600086815260200190815260200160002060009055600193505050506105f1565b60009150506105f1565b60606105f173ffffffffffffffffffffffffffffffffffffffff831660145b60606000611d7b8360026126f0565b611d86906002612516565b67ffffffffffffffff811115611d9e57611d9e61272d565b6040519080825280601f01601f191660200182016040528015611dc8576020820181803683370190505b5090507f300000000000000000000000000000000000000000000000000000000000000081600081518110611dff57611dff612692565b60200101907effffffffffffffffffffffffffffffffffffffffffffffffffffffffffffff1916908160001a9053507f780000000000000000000000000000000000000000000000000000000000000081600181518110611e6257611e62612692565b60200101907effffffffffffffffffffffffffffffffffffffffffffffffffffffffffffff1916908160001a9053506000611e9e8460026126f0565b611ea9906001612516565b90505b6001811115611f46577f303132333435363738396162636465660000000000000000000000000000000085600f1660108110611eea57611eea612692565b1a60f81b828281518110611f0057611f00612692565b60200101907effffffffffffffffffffffffffffffffffffffffffffffffffffffffffffff1916908160001a90535060049490941c93611f3f8161275c565b9050611eac565b50831561174d576040517f08c379a000000000000000000000000000000000000000000000000000000000815260206004820181905260248201527f537472696e67733a20686578206c656e67746820696e73756666696369656e746044820152606401610974565b828054611fbb9061247c565b90600052602060002090601f016020900481019282611fdd5760008555612041565b82601f10612014578280017fffffffffffffffffffffffffffffffffffffffffffffffffffffffffffffff00823516178555612041565b82800160010185558215612041579182015b82811115612041578235825591602001919060010190612026565b5061204d929150612087565b5090565b50805461205d9061247c565b6000825580601f1061206d575050565b601f01602090049060005260206000209081019061175e91905b5b8082111561204d5760008155600101612088565b6000602082840312156120ae57600080fd5b81357fffffffff000000000000000000000000000000000000000000000000000000008116811461174d57600080fd5b60005b838110156120f95781810151838201526020016120e1565b83811115612108576000848401525b50505050565b600081518084526121268160208601602086016120de565b601f017fffffffffffffffffffffffffffffffffffffffffffffffffffffffffffffffe0169290920160200192915050565b60208152600061174d602083018461210e565b803573ffffffffffffffffffffffffffffffffffffffff8116811461218f57600080fd5b919050565b600080604083850312156121a757600080fd5b6121b08361216b565b946020939093013593505050565b6020808252825182820181905260009190848201906040850190845b8181101561220c57835173ffffffffffffffffffffffffffffffffffffffff16835292840192918401916001016121da565b50909695505050505050565b60008060006060848603121561222d57600080fd5b6122368461216b565b92506122446020850161216b565b9150604084013590509250925092565b60006020828403121561226657600080fd5b5035919050565b6000806040838503121561228057600080fd5b823591506122906020840161216b565b90509250929050565b6000602082840312156122ab57600080fd5b61174d8261216b565b80356fffffffffffffffffffffffffffffffff8116811461218f57600080fd5b600080600080606085870312156122ea57600080fd5b6122f38561216b565b9350602085013567ffffffffffffffff8082111561231057600080fd5b818701915087601f83011261232457600080fd5b81358181111561233357600080fd5b88602082850101111561234557600080fd5b60208301955080945050505061235d604086016122b4565b905092959194509250565b6000806040838503121561237b57600080fd5b6123848361216b565b9150612290602084016122b4565b6020815260006fffffffffffffffffffffffffffffffff8084511660208401528060208501511660408401525060408301516060808401526123d7608084018261210e565b949350505050565b600080600080600080600060e0888a0312156123fa57600080fd5b6124038861216b565b96506124116020890161216b565b95506040880135945060608801359350608088013560ff8116811461243557600080fd5b9699959850939692959460a0840135945060c09093013592915050565b6000806040838503121561246557600080fd5b61246e8361216b565b91506122906020840161216b565b600181811c9082168061249057607f821691505b602082108114156124ca577f4e487b7100000000000000000000000000000000000000000000000000000000600052602260045260246000fd5b50919050565b7f4e487b7100000000000000000000000000000000000000000000000000000000600052601160045260246000fd5b600082821015612511576125116124d0565b500390565b60008219821115612529576125296124d0565b500190565b8183823760009101908152919050565b600080835481600182811c91508083168061255a57607f831692505b6020808410821415612593577f4e487b710000000000000000000000000000000000000000000000000000000086526022600452602486fd5b8180156125a757600181146125d657612603565b7fffffffffffffffffffffffffffffffffffffffffffffffffffffffffffffff00861689528489019650612603565b60008a81526020902060005b868110156125fb5781548b8201529085019083016125e2565b505084890196505b509498975050505050505050565b7f416363657373436f6e74726f6c3a206163636f756e74200000000000000000008152600083516126498160178501602088016120de565b7f206973206d697373696e6720726f6c652000000000000000000000000000000060179184019182015283516126868160288401602088016120de565b01602801949350505050565b7f4e487b7100000000000000000000000000000000000000000000000000000000600052603260045260246000fd5b7f4e487b7100000000000000000000000000000000000000000000000000000000600052603160045260246000fd5b6000817fffffffffffffffffffffffffffffffffffffffffffffffffffffffffffffffff0483118215151615612728576127286124d0565b500290565b7f4e487b7100000000000000000000000000000000000000000000000000000000600052604160045260246000fd5b60008161276b5761276b6124d0565b507fffffffffffffffffffffffffffffffffffffffffffffffffffffffffffffffff019056fea2646970667358221220dd7874dc72394388988eae18ff2ab457c8c4a5f3e853f03f2809630692daa02864736f6c634300080a0033",
  "devdoc": {
    "author": "Aave",
    "kind": "dev",
    "methods": {
      "addFacilitator(address,string,uint128)": {
        "details": "Only accounts with `FACILITATOR_MANAGER_ROLE` role can call this function",
        "params": {
          "bucketCapacity": "The upward limit of GHO can be minted by the facilitator",
          "facilitatorAddress": "The address of the facilitator to add",
          "facilitatorLabel": "A human readable identifier for the facilitator"
        }
      },
      "approve(address,uint256)": {
        "details": "Sets `amount` as the allowance of `spender` over the caller's tokens. Returns a boolean value indicating whether the operation succeeded. IMPORTANT: Beware that changing an allowance with this method brings the risk that someone may use both the old and the new allowance by unfortunate transaction ordering. One possible solution to mitigate this race condition is to first reduce the spender's allowance to 0 and set the desired value afterwards: https://github.com/ethereum/EIPs/issues/20#issuecomment-263524729 Emits an {Approval} event."
      },
      "burn(uint256)": {
        "details": "Only active facilitators (bucket level > 0) can burn.The bucket level is decreased upon burning.",
        "params": {
          "amount": "The amount to burn"
        }
      },
      "constructor": {
        "details": "Constructor",
        "params": {
          "admin": "This is the initial holder of the default admin role"
        }
      },
      "getFacilitator(address)": {
        "params": {
          "facilitator": "The address of the facilitator"
        },
        "returns": {
          "_0": "The facilitator configuration"
        }
      },
      "getFacilitatorBucket(address)": {
        "params": {
          "facilitator": "The address of the facilitator"
        },
        "returns": {
          "_0": "The capacity of the facilitator's bucket",
          "_1": "The level of the facilitator's bucket"
        }
      },
      "getFacilitatorsList()": {
        "returns": {
          "_0": "The list of the facilitators addresses"
        }
      },
      "getRoleAdmin(bytes32)": {
        "details": "Returns the admin role that controls `role`. See {grantRole} and {revokeRole}. To change a role's admin, use {_setRoleAdmin}."
      },
      "grantRole(bytes32,address)": {
        "details": "Grants `role` to `account`. If `account` had not been already granted `role`, emits a {RoleGranted} event. Requirements: - the caller must have ``role``'s admin role. May emit a {RoleGranted} event."
      },
      "hasRole(bytes32,address)": {
        "details": "Returns `true` if `account` has been granted `role`."
      },
      "mint(address,uint256)": {
        "details": "Only facilitators with enough bucket capacity available can mint.The bucket level is increased upon minting.",
        "params": {
          "account": "The address receiving the GHO tokens",
          "amount": "The amount to mint"
        }
      },
      "removeFacilitator(address)": {
        "details": "Only accounts with `FACILITATOR_MANAGER_ROLE` role can call this function",
        "params": {
          "facilitatorAddress": "The address of the facilitator to remove"
        }
      },
      "renounceRole(bytes32,address)": {
        "details": "Revokes `role` from the calling account. Roles are often managed via {grantRole} and {revokeRole}: this function's purpose is to provide a mechanism for accounts to lose their privileges if they are compromised (such as when a trusted device is misplaced). If the calling account had been revoked `role`, emits a {RoleRevoked} event. Requirements: - the caller must be `account`. May emit a {RoleRevoked} event."
      },
      "revokeRole(bytes32,address)": {
        "details": "Revokes `role` from `account`. If `account` had been granted `role`, emits a {RoleRevoked} event. Requirements: - the caller must have ``role``'s admin role. May emit a {RoleRevoked} event."
      },
      "setFacilitatorBucketCapacity(address,uint128)": {
        "details": "Only accounts with `BUCKET_MANAGER_ROLE` role can call this function",
        "params": {
          "facilitator": "The address of the facilitator",
          "newCapacity": "The new capacity of the bucket"
        }
      },
      "supportsInterface(bytes4)": {
        "details": "See {IERC165-supportsInterface}."
      },
      "transfer(address,uint256)": {
        "details": "Moves `amount` tokens from the caller's account to `to`. Returns a boolean value indicating whether the operation succeeded. Emits a {Transfer} event."
      },
      "transferFrom(address,address,uint256)": {
        "details": "Moves `amount` tokens from `from` to `to` using the allowance mechanism. `amount` is then deducted from the caller's allowance. Returns a boolean value indicating whether the operation succeeded. Emits a {Transfer} event."
      }
    },
    "stateVariables": {
      "BUCKET_MANAGER_ROLE": {
        "return": "The bytes32 id hash of the BucketManager role",
        "returns": {
          "_0": "The bytes32 id hash of the BucketManager role"
        }
      },
      "FACILITATOR_MANAGER_ROLE": {
        "return": "The bytes32 id hash of the FacilitatorManager role",
        "returns": {
          "_0": "The bytes32 id hash of the FacilitatorManager role"
        }
      }
    },
    "title": "GHO Token",
    "version": 1
  },
  "userdoc": {
    "kind": "user",
    "methods": {
      "BUCKET_MANAGER_ROLE()": {
        "notice": "Returns the identifier of the Bucket Manager Role"
      },
      "FACILITATOR_MANAGER_ROLE()": {
        "notice": "Returns the identifier of the Facilitator Manager Role"
      },
      "addFacilitator(address,string,uint128)": {
        "notice": "Add the facilitator passed with the parameters to the facilitators list."
      },
      "burn(uint256)": {
        "notice": "Burns the requested amount of tokens from the account address."
      },
      "getFacilitator(address)": {
        "notice": "Returns the facilitator data"
      },
      "getFacilitatorBucket(address)": {
        "notice": "Returns the bucket configuration of the facilitator"
      },
      "getFacilitatorsList()": {
        "notice": "Returns the list of the addresses of the active facilitator"
      },
      "mint(address,uint256)": {
        "notice": "Mints the requested amount of tokens to the account address."
      },
      "removeFacilitator(address)": {
        "notice": "Remove the facilitator from the facilitators list."
      },
      "setFacilitatorBucketCapacity(address,uint128)": {
        "notice": "Set the bucket capacity of the facilitator."
      }
    },
    "version": 1
  },
  "storageLayout": {
    "storage": [
      {
        "astId": 77796,
        "contract": "src/contracts/gho/GhoToken.sol:GhoToken",
        "label": "name",
        "offset": 0,
        "slot": "0",
        "type": "t_string_storage"
      },
      {
        "astId": 77798,
        "contract": "src/contracts/gho/GhoToken.sol:GhoToken",
        "label": "symbol",
        "offset": 0,
        "slot": "1",
        "type": "t_string_storage"
      },
      {
        "astId": 77802,
        "contract": "src/contracts/gho/GhoToken.sol:GhoToken",
        "label": "totalSupply",
        "offset": 0,
        "slot": "2",
        "type": "t_uint256"
      },
      {
        "astId": 77806,
        "contract": "src/contracts/gho/GhoToken.sol:GhoToken",
        "label": "balanceOf",
        "offset": 0,
        "slot": "3",
        "type": "t_mapping(t_address,t_uint256)"
      },
      {
        "astId": 77812,
        "contract": "src/contracts/gho/GhoToken.sol:GhoToken",
        "label": "allowance",
        "offset": 0,
        "slot": "4",
        "type": "t_mapping(t_address,t_mapping(t_address,t_uint256))"
      },
      {
        "astId": 77825,
        "contract": "src/contracts/gho/GhoToken.sol:GhoToken",
        "label": "nonces",
        "offset": 0,
        "slot": "5",
        "type": "t_mapping(t_address,t_uint256)"
      },
      {
        "astId": 19369,
        "contract": "src/contracts/gho/GhoToken.sol:GhoToken",
        "label": "_roles",
        "offset": 0,
        "slot": "6",
        "type": "t_mapping(t_bytes32,t_struct(RoleData)19364_storage)"
      },
      {
        "astId": 78196,
        "contract": "src/contracts/gho/GhoToken.sol:GhoToken",
        "label": "_facilitators",
        "offset": 0,
        "slot": "7",
        "type": "t_mapping(t_address,t_struct(Facilitator)79391_storage)"
      },
      {
        "astId": 78199,
        "contract": "src/contracts/gho/GhoToken.sol:GhoToken",
        "label": "_facilitatorsList",
        "offset": 0,
        "slot": "8",
        "type": "t_struct(AddressSet)25669_storage"
      }
    ],
    "types": {
      "t_address": {
        "encoding": "inplace",
        "label": "address",
        "numberOfBytes": "20"
      },
      "t_array(t_bytes32)dyn_storage": {
        "base": "t_bytes32",
        "encoding": "dynamic_array",
        "label": "bytes32[]",
        "numberOfBytes": "32"
      },
      "t_bool": {
        "encoding": "inplace",
        "label": "bool",
        "numberOfBytes": "1"
      },
      "t_bytes32": {
        "encoding": "inplace",
        "label": "bytes32",
        "numberOfBytes": "32"
      },
      "t_mapping(t_address,t_bool)": {
        "encoding": "mapping",
        "key": "t_address",
        "label": "mapping(address => bool)",
        "numberOfBytes": "32",
        "value": "t_bool"
      },
      "t_mapping(t_address,t_mapping(t_address,t_uint256))": {
        "encoding": "mapping",
        "key": "t_address",
        "label": "mapping(address => mapping(address => uint256))",
        "numberOfBytes": "32",
        "value": "t_mapping(t_address,t_uint256)"
      },
      "t_mapping(t_address,t_struct(Facilitator)79391_storage)": {
        "encoding": "mapping",
        "key": "t_address",
        "label": "mapping(address => struct IGhoToken.Facilitator)",
        "numberOfBytes": "32",
        "value": "t_struct(Facilitator)79391_storage"
      },
      "t_mapping(t_address,t_uint256)": {
        "encoding": "mapping",
        "key": "t_address",
        "label": "mapping(address => uint256)",
        "numberOfBytes": "32",
        "value": "t_uint256"
      },
      "t_mapping(t_bytes32,t_struct(RoleData)19364_storage)": {
        "encoding": "mapping",
        "key": "t_bytes32",
        "label": "mapping(bytes32 => struct AccessControl.RoleData)",
        "numberOfBytes": "32",
        "value": "t_struct(RoleData)19364_storage"
      },
      "t_mapping(t_bytes32,t_uint256)": {
        "encoding": "mapping",
        "key": "t_bytes32",
        "label": "mapping(bytes32 => uint256)",
        "numberOfBytes": "32",
        "value": "t_uint256"
      },
      "t_string_storage": {
        "encoding": "bytes",
        "label": "string",
        "numberOfBytes": "32"
      },
      "t_struct(AddressSet)25669_storage": {
        "encoding": "inplace",
        "label": "struct EnumerableSet.AddressSet",
        "members": [
          {
            "astId": 25668,
            "contract": "src/contracts/gho/GhoToken.sol:GhoToken",
            "label": "_inner",
            "offset": 0,
            "slot": "0",
            "type": "t_struct(Set)25354_storage"
          }
        ],
        "numberOfBytes": "64"
      },
      "t_struct(Facilitator)79391_storage": {
        "encoding": "inplace",
        "label": "struct IGhoToken.Facilitator",
        "members": [
          {
            "astId": 79386,
            "contract": "src/contracts/gho/GhoToken.sol:GhoToken",
            "label": "bucketCapacity",
            "offset": 0,
            "slot": "0",
            "type": "t_uint128"
          },
          {
            "astId": 79388,
            "contract": "src/contracts/gho/GhoToken.sol:GhoToken",
            "label": "bucketLevel",
            "offset": 16,
            "slot": "0",
            "type": "t_uint128"
          },
          {
            "astId": 79390,
            "contract": "src/contracts/gho/GhoToken.sol:GhoToken",
            "label": "label",
            "offset": 0,
            "slot": "1",
            "type": "t_string_storage"
          }
        ],
        "numberOfBytes": "64"
      },
      "t_struct(RoleData)19364_storage": {
        "encoding": "inplace",
        "label": "struct AccessControl.RoleData",
        "members": [
          {
            "astId": 19361,
            "contract": "src/contracts/gho/GhoToken.sol:GhoToken",
            "label": "members",
            "offset": 0,
            "slot": "0",
            "type": "t_mapping(t_address,t_bool)"
          },
          {
            "astId": 19363,
            "contract": "src/contracts/gho/GhoToken.sol:GhoToken",
            "label": "adminRole",
            "offset": 0,
            "slot": "1",
            "type": "t_bytes32"
          }
        ],
        "numberOfBytes": "64"
      },
      "t_struct(Set)25354_storage": {
        "encoding": "inplace",
        "label": "struct EnumerableSet.Set",
        "members": [
          {
            "astId": 25349,
            "contract": "src/contracts/gho/GhoToken.sol:GhoToken",
            "label": "_values",
            "offset": 0,
            "slot": "0",
            "type": "t_array(t_bytes32)dyn_storage"
          },
          {
            "astId": 25353,
            "contract": "src/contracts/gho/GhoToken.sol:GhoToken",
            "label": "_indexes",
            "offset": 0,
            "slot": "1",
            "type": "t_mapping(t_bytes32,t_uint256)"
          }
        ],
        "numberOfBytes": "64"
      },
      "t_uint128": {
        "encoding": "inplace",
        "label": "uint128",
        "numberOfBytes": "16"
      },
      "t_uint256": {
        "encoding": "inplace",
        "label": "uint256",
        "numberOfBytes": "32"
      }
    }
  }
}