{
  "_format": "hh-sol-artifact-1",
  "contractName": "DelegateCall",
  "sourceName": "contracts/DelegateCall.sol",
  "abi": [
    {
      "inputs": [
        {
          "internalType": "address",
          "name": "precompile",
          "type": "address"
        },
        {
          "internalType": "bytes",
          "name": "data",
          "type": "bytes"
        }
      ],
      "name": "callAddress",
      "outputs": [
        {
          "internalType": "bool",
          "name": "",
          "type": "bool"
        },
        {
          "internalType": "bytes",
          "name": "",
          "type": "bytes"
        }
      ],
      "stateMutability": "nonpayable",
      "type": "function"
    },
    {
      "inputs": [
        {
          "internalType": "address",
          "name": "precompile",
          "type": "address"
        },
        {
          "internalType": "bytes",
          "name": "data",
          "type": "bytes"
        }
      ],
      "name": "delegateCallAddress",
      "outputs": [
        {
          "internalType": "bool",
          "name": "",
          "type": "bool"
        },
        {
          "internalType": "bytes",
          "name": "",
          "type": "bytes"
        }
      ],
      "stateMutability": "nonpayable",
      "type": "function"
    }
  ],
  "bytecode": "0x608060405234801561001057600080fd5b50610425806100206000396000f3fe608060405234801561001057600080fd5b50600436106100365760003560e01c80630e13bb361461003b578063f6e8f39d1461006c575b600080fd5b6100556004803603810190610050919061025c565b61009d565b604051610063929190610367565b60405180910390f35b6100866004803603810190610081919061025c565b610115565b604051610094929190610367565b60405180910390f35b600060608473ffffffffffffffffffffffffffffffffffffffff1684846040516100c89291906103d6565b600060405180830381855af49150503d8060008114610103576040519150601f19603f3d011682016040523d82523d6000602084013e610108565b606091505b5091509150935093915050565b600060608473ffffffffffffffffffffffffffffffffffffffff1684846040516101409291906103d6565b6000604051808303816000865af19150503d806000811461017d576040519150601f19603f3d011682016040523d82523d6000602084013e610182565b606091505b5091509150935093915050565b600080fd5b600080fd5b600073ffffffffffffffffffffffffffffffffffffffff82169050919050565b60006101c482610199565b9050919050565b6101d4816101b9565b81146101df57600080fd5b50565b6000813590506101f1816101cb565b92915050565b600080fd5b600080fd5b600080fd5b60008083601f84011261021c5761021b6101f7565b5b8235905067ffffffffffffffff811115610239576102386101fc565b5b60208301915083600182028301111561025557610254610201565b5b9250929050565b6000806000604084860312156102755761027461018f565b5b6000610283868287016101e2565b935050602084013567ffffffffffffffff8111156102a4576102a3610194565b5b6102b086828701610206565b92509250509250925092565b60008115159050919050565b6102d1816102bc565b82525050565b600081519050919050565b600082825260208201905092915050565b60005b838110156103115780820151818401526020810190506102f6565b60008484015250505050565b6000601f19601f8301169050919050565b6000610339826102d7565b61034381856102e2565b93506103538185602086016102f3565b61035c8161031d565b840191505092915050565b600060408201905061037c60008301856102c8565b818103602083015261038e818461032e565b90509392505050565b600081905092915050565b82818337600083830152505050565b60006103bd8385610397565b93506103ca8385846103a2565b82840190509392505050565b60006103e38284866103b1565b9150819050939250505056fea26469706673582212207e8de4ff8b4d3188a789b98c1f1ed8863db508f13e1c1e627060c6fcc64a470764736f6c63430008180033",
  "linkReferences": {},
  "deployedLinkReferences": {}
}