{
  "_format": "hh-sol-artifact-1",
  "contractName": "DelegateCall",
  "sourceName": "contracts/DelegateCall.sol",
  "abi": [
    {
      "inputs": [
        {
          "internalType": "address",
          "name": "precompile",
          "type": "address"
        },
        {
          "internalType": "bytes",
          "name": "data",
          "type": "bytes"
        }
      ],
      "name": "delegateCallAddress",
      "outputs": [
        {
          "internalType": "bool",
          "name": "",
          "type": "bool"
        },
        {
          "internalType": "bytes",
          "name": "",
          "type": "bytes"
        }
      ],
      "stateMutability": "nonpayable",
      "type": "function"
    }
  ],
  "bytecode": "0x608060405234801561001057600080fd5b5061036f806100206000396000f3fe608060405234801561001057600080fd5b506004361061002b5760003560e01c80630e13bb3614610030575b600080fd5b61004a600480360381019061004591906101a6565b610061565b6040516100589291906102b1565b60405180910390f35b600060608473ffffffffffffffffffffffffffffffffffffffff16848460405161008c929190610320565b600060405180830381855af49150503d80600081146100c7576040519150601f19603f3d011682016040523d82523d6000602084013e6100cc565b606091505b5091509150935093915050565b600080fd5b600080fd5b600073ffffffffffffffffffffffffffffffffffffffff82169050919050565b600061010e826100e3565b9050919050565b61011e81610103565b811461012957600080fd5b50565b60008135905061013b81610115565b92915050565b600080fd5b600080fd5b600080fd5b60008083601f84011261016657610165610141565b5b8235905067ffffffffffffffff81111561018357610182610146565b5b60208301915083600182028301111561019f5761019e61014b565b5b9250929050565b6000806000604084860312156101bf576101be6100d9565b5b60006101cd8682870161012c565b935050602084013567ffffffffffffffff8111156101ee576101ed6100de565b5b6101fa86828701610150565b92509250509250925092565b60008115159050919050565b61021b81610206565b82525050565b600081519050919050565b600082825260208201905092915050565b60005b8381101561025b578082015181840152602081019050610240565b60008484015250505050565b6000601f19601f8301169050919050565b600061028382610221565b61028d818561022c565b935061029d81856020860161023d565b6102a681610267565b840191505092915050565b60006040820190506102c66000830185610212565b81810360208301526102d88184610278565b90509392505050565b600081905092915050565b82818337600083830152505050565b600061030783856102e1565b93506103148385846102ec565b82840190509392505050565b600061032d8284866102fb565b9150819050939250505056fea2646970667358221220e126283cfbac1c022f4750c36e5b73946c2f1fef1f8a0c099282becf857366f764736f6c63430008180033",
  "linkReferences": {},
  "deployedLinkReferences": {}
}