{
  "_format": "hh-sol-artifact-1",
  "contractName": "GasWaster",
  "sourceName": "contracts/SubcallGasExhaustionToken.sol",
  "abi": [
    {
      "inputs": [],
      "name": "counter",
      "outputs": [
        {
          "internalType": "uint256",
          "name": "",
          "type": "uint256"
        }
      ],
      "stateMutability": "view",
      "type": "function"
    },
    {
      "inputs": [
        {
          "internalType": "uint256",
          "name": "gasToWaste",
          "type": "uint256"
        }
      ],
      "name": "wasteGas",
      "outputs": [
        {
          "internalType": "bool",
          "name": "",
          "type": "bool"
        }
      ],
      "stateMutability": "nonpayable",
      "type": "function"
    }
  ],
  "bytecode": "0x608060405234801561001057600080fd5b50610284806100206000396000f3fe608060405234801561001057600080fd5b50600436106100365760003560e01c806361bc221a1461003b5780637fa4dcd814610059575b600080fd5b610043610089565b60405161005091906100f4565b60405180910390f35b610073600480360381019061006e9190610140565b61008f565b6040516100809190610188565b60405180910390f35b60005481565b6000805a90505b825a826100a391906101d2565b1080156100b0575060005a115b156100d1576000808154809291906100c790610206565b9190505550610096565b6001915050919050565b6000819050919050565b6100ee816100db565b82525050565b600060208201905061010960008301846100e5565b92915050565b600080fd5b61011d816100db565b811461012857600080fd5b50565b60008135905061013a81610114565b92915050565b6000602082840312156101565761015561010f565b5b60006101648482850161012b565b91505092915050565b60008115159050919050565b6101828161016d565b82525050565b600060208201905061019d6000830184610179565b92915050565b7f4e487b7100000000000000000000000000000000000000000000000000000000600052601160045260246000fd5b60006101dd826100db565b91506101e8836100db565b9250828203905081811115610200576101ff6101a3565b5b92915050565b6000610211826100db565b91507fffffffffffffffffffffffffffffffffffffffffffffffffffffffffffffffff8203610243576102426101a3565b5b60018201905091905056fea2646970667358221220f04eeceb69d3bcf9e1e44e9c546dcf85ad065033112abfd369d704a698a8f20364736f6c63430008180033",
  "linkReferences": {},
  "deployedLinkReferences": {}
}