{
  "_format": "hh-sol-artifact-1",
  "contractName": "SubcallGasExhaustionToken",
  "sourceName": "contracts/SubcallGasExhaustionToken.sol",
  "abi": [
    {
      "inputs": [
        {
          "internalType": "address",
          "name": "_routerAddress",
          "type": "address"
        },
        {
          "internalType": "uint256",
          "name": "_gasToWaste",
          "type": "uint256"
        }
      ],
      "stateMutability": "nonpayable",
      "type": "constructor"
    },
    {
      "inputs": [
        {
          "internalType": "address",
          "name": "spender",
          "type": "address"
        },
        {
          "internalType": "uint256",
          "name": "allowance",
          "type": "uint256"
        },
        {
          "internalType": "uint256",
          "name": "needed",
          "type": "uint256"
        }
      ],
      "name": "ERC20InsufficientAllowance",
      "type": "error"
    },
    {
      "inputs": [
        {
          "internalType": "address",
          "name": "sender",
          "type": "address"
        },
        {
          "internalType": "uint256",
          "name": "balance",
          "type": "uint256"
        },
        {
          "internalType": "uint256",
          "name": "needed",
          "type": "uint256"
        }
      ],
      "name": "ERC20InsufficientBalance",
      "type": "error"
    },
    {
      "inputs": [
        {
          "internalType": "address",
          "name": "approver",
          "type": "address"
        }
      ],
      "name": "ERC20InvalidApprover",
      "type": "error"
    },
    {
      "inputs": [
        {
          "internalType": "address",
          "name": "receiver",
          "type": "address"
        }
      ],
      "name": "ERC20InvalidReceiver",
      "type": "error"
    },
    {
      "inputs": [
        {
          "internalType": "address",
          "name": "sender",
          "type": "address"
        }
      ],
      "name": "ERC20InvalidSender",
      "type": "error"
    },
    {
      "inputs": [
        {
          "internalType": "address",
          "name": "spender",
          "type": "address"
        }
      ],
      "name": "ERC20InvalidSpender",
      "type": "error"
    },
    {
      "anonymous": false,
      "inputs": [
        {
          "indexed": true,
          "internalType": "address",
          "name": "owner",
          "type": "address"
        },
        {
          "indexed": true,
          "internalType": "address",
          "name": "spender",
          "type": "address"
        },
        {
          "indexed": false,
          "internalType": "uint256",
          "name": "value",
          "type": "uint256"
        }
      ],
      "name": "Approval",
      "type": "event"
    },
    {
      "anonymous": false,
      "inputs": [
        {
          "indexed": false,
          "internalType": "bool",
          "name": "enabled",
          "type": "bool"
        }
      ],
      "name": "GasWastingEnabled",
      "type": "event"
    },
    {
      "anonymous": false,
      "inputs": [
        {
          "indexed": false,
          "internalType": "uint256",
          "name": "gasLeft",
          "type": "uint256"
        }
      ],
      "name": "SubcallFailed",
      "type": "event"
    },
    {
      "anonymous": false,
      "inputs": [
        {
          "indexed": true,
          "internalType": "address",
          "name": "from",
          "type": "address"
        },
        {
          "indexed": true,
          "internalType": "address",
          "name": "to",
          "type": "address"
        },
        {
          "indexed": false,
          "internalType": "uint256",
          "name": "value",
          "type": "uint256"
        }
      ],
      "name": "Transfer",
      "type": "event"
    },
    {
      "inputs": [
        {
          "internalType": "address",
          "name": "owner",
          "type": "address"
        },
        {
          "internalType": "address",
          "name": "spender",
          "type": "address"
        }
      ],
      "name": "allowance",
      "outputs": [
        {
          "internalType": "uint256",
          "name": "",
          "type": "uint256"
        }
      ],
      "stateMutability": "view",
      "type": "function"
    },
    {
      "inputs": [
        {
          "internalType": "address",
          "name": "spender",
          "type": "address"
        },
        {
          "internalType": "uint256",
          "name": "value",
          "type": "uint256"
        }
      ],
      "name": "approve",
      "outputs": [
        {
          "internalType": "bool",
          "name": "",
          "type": "bool"
        }
      ],
      "stateMutability": "nonpayable",
      "type": "function"
    },
    {
      "inputs": [
        {
          "internalType": "address",
          "name": "account",
          "type": "address"
        }
      ],
      "name": "balanceOf",
      "outputs": [
        {
          "internalType": "uint256",
          "name": "",
          "type": "uint256"
        }
      ],
      "stateMutability": "view",
      "type": "function"
    },
    {
      "inputs": [],
      "name": "decimals",
      "outputs": [
        {
          "internalType": "uint8",
          "name": "",
          "type": "uint8"
        }
      ],
      "stateMutability": "view",
      "type": "function"
    },
    {
      "inputs": [],
      "name": "enableGasWasting",
      "outputs": [
        {
          "internalType": "bool",
          "name": "",
          "type": "bool"
        }
      ],
      "stateMutability": "view",
      "type": "function"
    },
    {
      "inputs": [],
      "name": "gasToWaste",
      "outputs": [
        {
          "internalType": "uint256",
          "name": "",
          "type": "uint256"
        }
      ],
      "stateMutability": "view",
      "type": "function"
    },
    {
      "inputs": [],
      "name": "gasWaster",
      "outputs": [
        {
          "internalType": "contract GasWaster",
          "name": "",
          "type": "address"
        }
      ],
      "stateMutability": "view",
      "type": "function"
    },
    {
      "inputs": [],
      "name": "getGasWasterAddress",
      "outputs": [
        {
          "internalType": "address",
          "name": "",
          "type": "address"
        }
      ],
      "stateMutability": "view",
      "type": "function"
    },
    {
      "inputs": [],
      "name": "name",
      "outputs": [
        {
          "internalType": "string",
          "name": "",
          "type": "string"
        }
      ],
      "stateMutability": "view",
      "type": "function"
    },
    {
      "inputs": [],
      "name": "routerAddress",
      "outputs": [
        {
          "internalType": "address",
          "name": "",
          "type": "address"
        }
      ],
      "stateMutability": "view",
      "type": "function"
    },
    {
      "inputs": [
        {
          "internalType": "bool",
          "name": "_enable",
          "type": "bool"
        }
      ],
      "name": "setEnableGasWasting",
      "outputs": [],
      "stateMutability": "nonpayable",
      "type": "function"
    },
    {
      "inputs": [],
      "name": "symbol",
      "outputs": [
        {
          "internalType": "string",
          "name": "",
          "type": "string"
        }
      ],
      "stateMutability": "view",
      "type": "function"
    },
    {
      "inputs": [],
      "name": "totalSupply",
      "outputs": [
        {
          "internalType": "uint256",
          "name": "",
          "type": "uint256"
        }
      ],
      "stateMutability": "view",
      "type": "function"
    },
    {
      "inputs": [
        {
          "internalType": "address",
          "name": "to",
          "type": "address"
        },
        {
          "internalType": "uint256",
          "name": "amount",
          "type": "uint256"
        }
      ],
      "name": "transfer",
      "outputs": [
        {
          "internalType": "bool",
          "name": "",
          "type": "bool"
        }
      ],
      "stateMutability": "nonpayable",
      "type": "function"
    },
    {
      "inputs": [
        {
          "internalType": "address",
          "name": "from",
          "type": "address"
        },
        {
          "internalType": "address",
          "name": "to",
          "type": "address"
        },
        {
          "internalType": "uint256",
          "name": "amount",
          "type": "uint256"
        }
      ],
      "name": "transferFrom",
      "outputs": [
        {
          "internalType": "bool",
          "name": "",
          "type": "bool"
        }
      ],
      "stateMutability": "nonpayable",
      "type": "function"
    }
  ],
  "bytecode": "0x60806040523480156200001157600080fd5b50604051620022df380380620022df833981810160405281019062000037919062000558565b6040518060400160405280600f81526020017f53756263616c6c476173546f6b656e00000000000000000000000000000000008152506040518060400160405280600381526020017f53475400000000000000000000000000000000000000000000000000000000008152508160039081620000b491906200080f565b508060049081620000c691906200080f565b50505081600660006101000a81548173ffffffffffffffffffffffffffffffffffffffff021916908373ffffffffffffffffffffffffffffffffffffffff160217905550806007819055506001600860006101000a81548160ff0219169083151502179055506040516200013a90620004a5565b604051809103906000f08015801562000157573d6000803e3d6000fd5b50600560006101000a81548173ffffffffffffffffffffffffffffffffffffffff021916908373ffffffffffffffffffffffffffffffffffffffff160217905550620001d733620001ad620001df60201b60201c565b600a620001bb919062000a86565b620f4240620001cb919062000ad7565b620001e860201b60201c565b505062000bf6565b60006012905090565b600073ffffffffffffffffffffffffffffffffffffffff168273ffffffffffffffffffffffffffffffffffffffff16036200025d5760006040517fec442f0500000000000000000000000000000000000000000000000000000000815260040162000254919062000b33565b60405180910390fd5b62000271600083836200027560201b60201c565b5050565b600073ffffffffffffffffffffffffffffffffffffffff168373ffffffffffffffffffffffffffffffffffffffff1603620002cb578060026000828254620002be919062000b50565b92505081905550620003a1565b60008060008573ffffffffffffffffffffffffffffffffffffffff1673ffffffffffffffffffffffffffffffffffffffff168152602001908152602001600020549050818110156200035a578381836040517fe450d38c000000000000000000000000000000000000000000000000000000008152600401620003519392919062000b9c565b60405180910390fd5b8181036000808673ffffffffffffffffffffffffffffffffffffffff1673ffffffffffffffffffffffffffffffffffffffff16815260200190815260200160002081905550505b600073ffffffffffffffffffffffffffffffffffffffff168273ffffffffffffffffffffffffffffffffffffffff1603620003ec578060026000828254039250508190555062000439565b806000808473ffffffffffffffffffffffffffffffffffffffff1673ffffffffffffffffffffffffffffffffffffffff168152602001908152602001600020600082825401925050819055505b8173ffffffffffffffffffffffffffffffffffffffff168373ffffffffffffffffffffffffffffffffffffffff167fddf252ad1be2c89b69c2b068fc378daa952ba7f163c4a11628f55a4df523b3ef8360405162000498919062000bd9565b60405180910390a3505050565b6102a4806200203b83390190565b600080fd5b600073ffffffffffffffffffffffffffffffffffffffff82169050919050565b6000620004e582620004b8565b9050919050565b620004f781620004d8565b81146200050357600080fd5b50565b6000815190506200051781620004ec565b92915050565b6000819050919050565b62000532816200051d565b81146200053e57600080fd5b50565b600081519050620005528162000527565b92915050565b60008060408385031215620005725762000571620004b3565b5b6000620005828582860162000506565b9250506020620005958582860162000541565b9150509250929050565b600081519050919050565b7f4e487b7100000000000000000000000000000000000000000000000000000000600052604160045260246000fd5b7f4e487b7100000000000000000000000000000000000000000000000000000000600052602260045260246000fd5b600060028204905060018216806200062157607f821691505b602082108103620006375762000636620005d9565b5b50919050565b60008190508160005260206000209050919050565b60006020601f8301049050919050565b600082821b905092915050565b600060088302620006a17fffffffffffffffffffffffffffffffffffffffffffffffffffffffffffffffff8262000662565b620006ad868362000662565b95508019841693508086168417925050509392505050565b6000819050919050565b6000620006f0620006ea620006e4846200051d565b620006c5565b6200051d565b9050919050565b6000819050919050565b6200070c83620006cf565b620007246200071b82620006f7565b8484546200066f565b825550505050565b600090565b6200073b6200072c565b6200074881848462000701565b505050565b5b8181101562000770576200076460008262000731565b6001810190506200074e565b5050565b601f821115620007bf5762000789816200063d565b620007948462000652565b81016020851015620007a4578190505b620007bc620007b38562000652565b8301826200074d565b50505b505050565b600082821c905092915050565b6000620007e460001984600802620007c4565b1980831691505092915050565b6000620007ff8383620007d1565b9150826002028217905092915050565b6200081a826200059f565b67ffffffffffffffff811115620008365762000835620005aa565b5b62000842825462000608565b6200084f82828562000774565b600060209050601f83116001811462000887576000841562000872578287015190505b6200087e8582620007f1565b865550620008ee565b601f19841662000897866200063d565b60005b82811015620008c1578489015182556001820191506020850194506020810190506200089a565b86831015620008e15784890151620008dd601f891682620007d1565b8355505b6001600288020188555050505b505050505050565b7f4e487b7100000000000000000000000000000000000000000000000000000000600052601160045260246000fd5b60008160011c9050919050565b6000808291508390505b600185111562000984578086048111156200095c576200095b620008f6565b5b60018516156200096c5780820291505b80810290506200097c8562000925565b94506200093c565b94509492505050565b6000826200099f576001905062000a72565b81620009af576000905062000a72565b8160018114620009c85760028114620009d35762000a09565b600191505062000a72565b60ff841115620009e857620009e7620008f6565b5b8360020a91508482111562000a025762000a01620008f6565b5b5062000a72565b5060208310610133831016604e8410600b841016171562000a435782820a90508381111562000a3d5762000a3c620008f6565b5b62000a72565b62000a52848484600162000932565b9250905081840481111562000a6c5762000a6b620008f6565b5b81810290505b9392505050565b600060ff82169050919050565b600062000a93826200051d565b915062000aa08362000a79565b925062000acf7fffffffffffffffffffffffffffffffffffffffffffffffffffffffffffffffff84846200098d565b905092915050565b600062000ae4826200051d565b915062000af1836200051d565b925082820262000b01816200051d565b9150828204841483151762000b1b5762000b1a620008f6565b5b5092915050565b62000b2d81620004d8565b82525050565b600060208201905062000b4a600083018462000b22565b92915050565b600062000b5d826200051d565b915062000b6a836200051d565b925082820190508082111562000b855762000b84620008f6565b5b92915050565b62000b96816200051d565b82525050565b600060608201905062000bb3600083018662000b22565b62000bc2602083018562000b8b565b62000bd1604083018462000b8b565b949350505050565b600060208201905062000bf0600083018462000b8b565b92915050565b6114358062000c066000396000f3fe608060405234801561001057600080fd5b50600436106100f55760003560e01c806391f4735311610097578063a9059cbb11610066578063a9059cbb14610278578063ce2539e8146102a8578063dd62ed3e146102c6578063ed2a7b04146102f6576100f5565b806391f473531461020257806395d89b4114610220578063a69ce5e71461023e578063a6fd65671461025c576100f5565b806323b872dd116100d357806323b872dd14610166578063313ce567146101965780633268cc56146101b457806370a08231146101d2576100f5565b806306fdde03146100fa578063095ea7b31461011857806318160ddd14610148575b600080fd5b610102610314565b60405161010f9190610f74565b60405180910390f35b610132600480360381019061012d919061102f565b6103a6565b60405161013f919061108a565b60405180910390f35b6101506103c9565b60405161015d91906110b4565b60405180910390f35b610180600480360381019061017b91906110cf565b6103d3565b60405161018d919061108a565b60405180910390f35b61019e61053e565b6040516101ab919061113e565b60405180910390f35b6101bc610547565b6040516101c99190611168565b60405180910390f35b6101ec60048036038101906101e79190611183565b61056d565b6040516101f991906110b4565b60405180910390f35b61020a6105b5565b604051610217919061120f565b60405180910390f35b6102286105db565b6040516102359190610f74565b60405180910390f35b61024661066d565b604051610253919061108a565b60405180910390f35b61027660048036038101906102719190611256565b610680565b005b610292600480360381019061028d919061102f565b6106d4565b60405161029f919061108a565b60405180910390f35b6102b061083d565b6040516102bd91906110b4565b60405180910390f35b6102e060048036038101906102db9190611283565b610843565b6040516102ed91906110b4565b60405180910390f35b6102fe6108ca565b60405161030b9190611168565b60405180910390f35b606060038054610323906112f2565b80601f016020809104026020016040519081016040528092919081815260200182805461034f906112f2565b801561039c5780601f106103715761010080835404028352916020019161039c565b820191906000526020600020905b81548152906001019060200180831161037f57829003601f168201915b5050505050905090565b6000806103b16108f4565b90506103be8185856108fc565b600191505092915050565b6000600254905090565b6000600860009054906101000a900460ff16801561043e5750600660009054906101000a900473ffffffffffffffffffffffffffffffffffffffff1673ffffffffffffffffffffffffffffffffffffffff168373ffffffffffffffffffffffffffffffffffffffff16145b1561052a576000600560009054906101000a900473ffffffffffffffffffffffffffffffffffffffff1673ffffffffffffffffffffffffffffffffffffffff16637fa4dcd86007546040518263ffffffff1660e01b81526004016104a291906110b4565b6020604051808303816000875af11580156104c1573d6000803e3d6000fd5b505050506040513d601f19601f820116820180604052508101906104e59190611338565b905080610528577fdbc5d06f4f877f959b1ff12d2161cdd693fa8e442ee53f1790b2804b24881f055a60405161051b91906110b4565b60405180910390a1600080fd5b505b61053584848461090e565b90509392505050565b60006012905090565b600660009054906101000a900473ffffffffffffffffffffffffffffffffffffffff1681565b60008060008373ffffffffffffffffffffffffffffffffffffffff1673ffffffffffffffffffffffffffffffffffffffff168152602001908152602001600020549050919050565b600560009054906101000a900473ffffffffffffffffffffffffffffffffffffffff1681565b6060600480546105ea906112f2565b80601f0160208091040260200160405190810160405280929190818152602001828054610616906112f2565b80156106635780601f1061063857610100808354040283529160200191610663565b820191906000526020600020905b81548152906001019060200180831161064657829003601f168201915b5050505050905090565b600860009054906101000a900460ff1681565b80600860006101000a81548160ff0219169083151502179055507f1ac70fe8ed988f54e0df47c56a8f8942e4fccf01e0b44e6cd09cc38d8b5ad1ef816040516106c9919061108a565b60405180910390a150565b6000600860009054906101000a900460ff16801561073f5750600660009054906101000a900473ffffffffffffffffffffffffffffffffffffffff1673ffffffffffffffffffffffffffffffffffffffff168373ffffffffffffffffffffffffffffffffffffffff16145b1561082b576000600560009054906101000a900473ffffffffffffffffffffffffffffffffffffffff1673ffffffffffffffffffffffffffffffffffffffff16637fa4dcd86007546040518263ffffffff1660e01b81526004016107a391906110b4565b6020604051808303816000875af11580156107c2573d6000803e3d6000fd5b505050506040513d601f19601f820116820180604052508101906107e69190611338565b905080610829577fdbc5d06f4f877f959b1ff12d2161cdd693fa8e442ee53f1790b2804b24881f055a60405161081c91906110b4565b60405180910390a1600080fd5b505b610835838361093d565b905092915050565b60075481565b6000600160008473ffffffffffffffffffffffffffffffffffffffff1673ffffffffffffffffffffffffffffffffffffffff16815260200190815260200160002060008373ffffffffffffffffffffffffffffffffffffffff1673ffffffffffffffffffffffffffffffffffffffff16815260200190815260200160002054905092915050565b6000600560009054906101000a900473ffffffffffffffffffffffffffffffffffffffff16905090565b600033905090565b6109098383836001610960565b505050565b6000806109196108f4565b9050610926858285610b37565b610931858585610bcb565b60019150509392505050565b6000806109486108f4565b9050610955818585610bcb565b600191505092915050565b600073ffffffffffffffffffffffffffffffffffffffff168473ffffffffffffffffffffffffffffffffffffffff16036109d25760006040517fe602df050000000000000000000000000000000000000000000000000000000081526004016109c99190611168565b60405180910390fd5b600073ffffffffffffffffffffffffffffffffffffffff168373ffffffffffffffffffffffffffffffffffffffff1603610a445760006040517f94280d62000000000000000000000000000000000000000000000000000000008152600401610a3b9190611168565b60405180910390fd5b81600160008673ffffffffffffffffffffffffffffffffffffffff1673ffffffffffffffffffffffffffffffffffffffff16815260200190815260200160002060008573ffffffffffffffffffffffffffffffffffffffff1673ffffffffffffffffffffffffffffffffffffffff168152602001908152602001600020819055508015610b31578273ffffffffffffffffffffffffffffffffffffffff168473ffffffffffffffffffffffffffffffffffffffff167f8c5be1e5ebec7d5bd14f71427d1e84f3dd0314c0f7b2291e5b200ac8c7c3b92584604051610b2891906110b4565b60405180910390a35b50505050565b6000610b438484610843565b90507fffffffffffffffffffffffffffffffffffffffffffffffffffffffffffffffff8114610bc55781811015610bb5578281836040517ffb8f41b2000000000000000000000000000000000000000000000000000000008152600401610bac93929190611365565b60405180910390fd5b610bc484848484036000610960565b5b50505050565b600073ffffffffffffffffffffffffffffffffffffffff168373ffffffffffffffffffffffffffffffffffffffff1603610c3d5760006040517f96c6fd1e000000000000000000000000000000000000000000000000000000008152600401610c349190611168565b60405180910390fd5b600073ffffffffffffffffffffffffffffffffffffffff168273ffffffffffffffffffffffffffffffffffffffff1603610caf5760006040517fec442f05000000000000000000000000000000000000000000000000000000008152600401610ca69190611168565b60405180910390fd5b610cba838383610cbf565b505050565b600073ffffffffffffffffffffffffffffffffffffffff168373ffffffffffffffffffffffffffffffffffffffff1603610d11578060026000828254610d0591906113cb565b92505081905550610de4565b60008060008573ffffffffffffffffffffffffffffffffffffffff1673ffffffffffffffffffffffffffffffffffffffff16815260200190815260200160002054905081811015610d9d578381836040517fe450d38c000000000000000000000000000000000000000000000000000000008152600401610d9493929190611365565b60405180910390fd5b8181036000808673ffffffffffffffffffffffffffffffffffffffff1673ffffffffffffffffffffffffffffffffffffffff16815260200190815260200160002081905550505b600073ffffffffffffffffffffffffffffffffffffffff168273ffffffffffffffffffffffffffffffffffffffff1603610e2d5780600260008282540392505081905550610e7a565b806000808473ffffffffffffffffffffffffffffffffffffffff1673ffffffffffffffffffffffffffffffffffffffff168152602001908152602001600020600082825401925050819055505b8173ffffffffffffffffffffffffffffffffffffffff168373ffffffffffffffffffffffffffffffffffffffff167fddf252ad1be2c89b69c2b068fc378daa952ba7f163c4a11628f55a4df523b3ef83604051610ed791906110b4565b60405180910390a3505050565b600081519050919050565b600082825260208201905092915050565b60005b83811015610f1e578082015181840152602081019050610f03565b60008484015250505050565b6000601f19601f8301169050919050565b6000610f4682610ee4565b610f508185610eef565b9350610f60818560208601610f00565b610f6981610f2a565b840191505092915050565b60006020820190508181036000830152610f8e8184610f3b565b905092915050565b600080fd5b600073ffffffffffffffffffffffffffffffffffffffff82169050919050565b6000610fc682610f9b565b9050919050565b610fd681610fbb565b8114610fe157600080fd5b50565b600081359050610ff381610fcd565b92915050565b6000819050919050565b61100c81610ff9565b811461101757600080fd5b50565b60008135905061102981611003565b92915050565b6000806040838503121561104657611045610f96565b5b600061105485828601610fe4565b92505060206110658582860161101a565b9150509250929050565b60008115159050919050565b6110848161106f565b82525050565b600060208201905061109f600083018461107b565b92915050565b6110ae81610ff9565b82525050565b60006020820190506110c960008301846110a5565b92915050565b6000806000606084860312156110e8576110e7610f96565b5b60006110f686828701610fe4565b935050602061110786828701610fe4565b92505060406111188682870161101a565b9150509250925092565b600060ff82169050919050565b61113881611122565b82525050565b6000602082019050611153600083018461112f565b92915050565b61116281610fbb565b82525050565b600060208201905061117d6000830184611159565b92915050565b60006020828403121561119957611198610f96565b5b60006111a784828501610fe4565b91505092915050565b6000819050919050565b60006111d56111d06111cb84610f9b565b6111b0565b610f9b565b9050919050565b60006111e7826111ba565b9050919050565b60006111f9826111dc565b9050919050565b611209816111ee565b82525050565b60006020820190506112246000830184611200565b92915050565b6112338161106f565b811461123e57600080fd5b50565b6000813590506112508161122a565b92915050565b60006020828403121561126c5761126b610f96565b5b600061127a84828501611241565b91505092915050565b6000806040838503121561129a57611299610f96565b5b60006112a885828601610fe4565b92505060206112b985828601610fe4565b9150509250929050565b7f4e487b7100000000000000000000000000000000000000000000000000000000600052602260045260246000fd5b6000600282049050600182168061130a57607f821691505b60208210810361131d5761131c6112c3565b5b50919050565b6000815190506113328161122a565b92915050565b60006020828403121561134e5761134d610f96565b5b600061135c84828501611323565b91505092915050565b600060608201905061137a6000830186611159565b61138760208301856110a5565b61139460408301846110a5565b949350505050565b7f4e487b7100000000000000000000000000000000000000000000000000000000600052601160045260246000fd5b60006113d682610ff9565b91506113e183610ff9565b92508282019050808211156113f9576113f861139c565b5b9291505056fea264697066735822122025faa3de26c129b60192a77ef7674148a6eb24196b975195ff96279c451cc1c764736f6c63430008180033608060405234801561001057600080fd5b50610284806100206000396000f3fe608060405234801561001057600080fd5b50600436106100365760003560e01c806361bc221a1461003b5780637fa4dcd814610059575b600080fd5b610043610089565b60405161005091906100f4565b60405180910390f35b610073600480360381019061006e9190610140565b61008f565b6040516100809190610188565b60405180910390f35b60005481565b6000805a90505b825a826100a391906101d2565b1080156100b0575060005a115b156100d1576000808154809291906100c790610206565b9190505550610096565b6001915050919050565b6000819050919050565b6100ee816100db565b82525050565b600060208201905061010960008301846100e5565b92915050565b600080fd5b61011d816100db565b811461012857600080fd5b50565b60008135905061013a81610114565b92915050565b6000602082840312156101565761015561010f565b5b60006101648482850161012b565b91505092915050565b60008115159050919050565b6101828161016d565b82525050565b600060208201905061019d6000830184610179565b92915050565b7f4e487b7100000000000000000000000000000000000000000000000000000000600052601160045260246000fd5b60006101dd826100db565b91506101e8836100db565b9250828203905081811115610200576101ff6101a3565b5b92915050565b6000610211826100db565b91507fffffffffffffffffffffffffffffffffffffffffffffffffffffffffffffffff8203610243576102426101a3565b5b60018201905091905056fea2646970667358221220f04eeceb69d3bcf9e1e44e9c546dcf85ad065033112abfd369d704a698a8f20364736f6c63430008180033",
  "linkReferences": {},
  "deployedLinkReferences": {}
}