{
  "abi": [
    {
      "type": "constructor",
      "inputs": [
        {
          "name": "primaryFeed",
          "type": "address",
          "internalType": "address"
        },
        {
          "name": "secondaryFeed",
          "type": "address",
          "internalType": "address"
        },
        {
          "name": "maxDiffBps_",
          "type": "uint256",
          "internalType": "uint256"
        }
      ],
      "stateMutability": "nonpayable"
    },
    {
      "type": "function",
      "name": "MAX_BPS",
      "inputs": [],
      "outputs": [
        {
          "name": "",
          "type": "uint256",
          "internalType": "uint256"
        }
      ],
      "stateMutability": "view"
    },
    {
      "type": "function",
      "name": "decimals",
      "inputs": [],
      "outputs": [
        {
          "name": "",
          "type": "uint8",
          "internalType": "uint8"
        }
      ],
      "stateMutability": "pure"
    },
    {
      "type": "function",
      "name": "getAnswer",
      "inputs": [
        {
          "name": "roundId",
          "type": "uint256",
          "internalType": "uint256"
        }
      ],
      "outputs": [
        {
          "name": "",
          "type": "int256",
          "internalType": "int256"
        }
      ],
      "stateMutability": "view"
    },
    {
      "type": "function",
      "name": "getTimestamp",
      "inputs": [
        {
          "name": "roundId",
          "type": "uint256",
          "internalType": "uint256"
        }
      ],
      "outputs": [
        {
          "name": "",
          "type": "uint256",
          "internalType": "uint256"
        }
      ],
      "stateMutability": "view"
    },
    {
      "type": "function",
      "name": "latestAnswer",
      "inputs": [],
      "outputs": [
        {
          "name": "",
          "type": "int256",
          "internalType": "int256"
        }
      ],
      "stateMutability": "view"
    },
    {
      "type": "function",
      "name": "latestRound",
      "inputs": [],
      "outputs": [
        {
          "name": "",
          "type": "uint256",
          "internalType": "uint256"
        }
      ],
      "stateMutability": "view"
    },
    {
      "type": "function",
      "name": "latestTimestamp",
      "inputs": [],
      "outputs": [
        {
          "name": "",
          "type": "uint256",
          "internalType": "uint256"
        }
      ],
      "stateMutability": "view"
    },
    {
      "type": "function",
      "name": "maxDiffBps",
      "inputs": [],
      "outputs": [
        {
          "name": "",
          "type": "uint256",
          "internalType": "uint256"
        }
      ],
      "stateMutability": "view"
    },
    {
      "type": "function",
      "name": "primary",
      "inputs": [],
      "outputs": [
        {
          "name": "",
          "type": "address",
          "internalType": "address"
        }
      ],
      "stateMutability": "view"
    },
    {
      "type": "function",
      "name": "secondary",
      "inputs": [],
      "outputs": [
        {
          "name": "",
          "type": "address",
          "internalType": "address"
        }
      ],
      "stateMutability": "view"
    },
    {
      "type": "event",
      "name": "AnswerUpdated",
      "inputs": [
        {
          "name": "current",
          "type": "int256",
          "indexed": true,
          "internalType": "int256"
        },
        {
          "name": "roundId",
          "type": "uint256",
          "indexed": true,
          "internalType": "uint256"
        },
        {
          "name": "updatedAt",
          "type": "uint256",
          "indexed": false,
          "internalType": "uint256"
        }
      ],
      "anonymous": false
    },
    {
      "type": "event",
      "name": "ClampParamsUpdated",
      "inputs": [
        {
          "name": "primaryFeed",
          "type": "address",
          "indexed": true,
          "internalType": "address"
        },
        {
          "name": "secondaryFeed",
          "type": "address",
          "indexed": true,
          "internalType": "address"
        },
        {
          "name": "maxDiffBps",
          "type": "uint256",
          "indexed": false,
          "internalType": "uint256"
        }
      ],
      "anonymous": false
    },
    {
      "type": "event",
      "name": "ClampedOracleInitialized",
      "inputs": [
        {
          "name": "primaryFeed",
          "type": "address",
          "indexed": true,
          "internalType": "address"
        },
        {
          "name": "secondaryFeed",
          "type": "address",
          "indexed": true,
          "internalType": "address"
        },
        {
          "name": "maxDiffBps",
          "type": "uint256",
          "indexed": false,
          "internalType": "uint256"
        }
      ],
      "anonymous": false
    },
    {
      "type": "event",
      "name": "NewRound",
      "inputs": [
        {
          "name": "roundId",
          "type": "uint256",
          "indexed": true,
          "internalType": "uint256"
        },
        {
          "name": "startedBy",
          "type": "address",
          "indexed": true,
          "internalType": "address"
        },
        {
          "name": "startedAt",
          "type": "uint256",
          "indexed": false,
          "internalType": "uint256"
        }
      ],
      "anonymous": false
    },
    {
      "type": "error",
      "name": "DecimalsMismatch",
      "inputs": []
    },
    {
      "type": "error",
      "name": "InvalidBps",
      "inputs": []
    },
    {
      "type": "error",
      "name": "InvalidFeed",
      "inputs": []
    },
    {
      "type": "error",
      "name": "NoValidPrice",
      "inputs": []
    }
  ],
  "bytecode": "0x60e060405234801561000f575f5ffd5b506040516111f03803806111f083398181016040528101906100319190610277565b5f73ffffffffffffffffffffffffffffffffffffffff168373ffffffffffffffffffffffffffffffffffffffff16148061009657505f73ffffffffffffffffffffffffffffffffffffffff168273ffffffffffffffffffffffffffffffffffffffff16145b156100cd576040517f1f86e17000000000000000000000000000000000000000000000000000000000815260040160405180910390fd5b612710811115610109576040517fc6cc5d7f00000000000000000000000000000000000000000000000000000000815260040160405180910390fd5b8273ffffffffffffffffffffffffffffffffffffffff1660808173ffffffffffffffffffffffffffffffffffffffff16815250508173ffffffffffffffffffffffffffffffffffffffff1660a08173ffffffffffffffffffffffffffffffffffffffff16815250508060c081815250508173ffffffffffffffffffffffffffffffffffffffff168373ffffffffffffffffffffffffffffffffffffffff167f72c06120b05249373fcc8b148cb65d469cd769d349c30f8e772481e8e88c7a05836040516101d691906102d6565b60405180910390a35050506102ef565b5f5ffd5b5f73ffffffffffffffffffffffffffffffffffffffff82169050919050565b5f610213826101ea565b9050919050565b61022381610209565b811461022d575f5ffd5b50565b5f8151905061023e8161021a565b92915050565b5f819050919050565b61025681610244565b8114610260575f5ffd5b50565b5f815190506102718161024d565b92915050565b5f5f5f6060848603121561028e5761028d6101e6565b5b5f61029b86828701610230565b93505060206102ac86828701610230565b92505060406102bd86828701610263565b9150509250925092565b6102d081610244565b82525050565b5f6020820190506102e95f8301846102c7565b92915050565b60805160a05160c051610e8a6103665f395f81816102ce015281816103170152818161056c015281816105b501526106a601525f81816104700152818161078b01526109c201525f818161038901528181610680015281816106d201528181610844015281816108fd0152610a870152610e8a5ff3fe608060405234801561000f575f5ffd5b506004361061009c575f3560e01c8063b5ab58dc11610064578063b5ab58dc14610136578063b633620c14610166578063c6dbdf6114610196578063f40a1cbf146101b4578063fd967f47146101d25761009c565b8063313ce567146100a057806350d25bcd146100be578063668a0f02146100dc5780638205bf6a146100fa5780639d3c8cc414610118575b5f5ffd5b6100a86101f0565b6040516100b59190610b63565b60405180910390f35b6100c66101f8565b6040516100d39190610b94565b60405180910390f35b6100e4610386565b6040516100f19190610bc5565b60405180910390f35b610102610419565b60405161010f9190610bc5565b60405180910390f35b61012061046d565b60405161012d9190610c1d565b60405180910390f35b610150600480360381019061014b9190610c64565b610494565b60405161015d9190610b94565b60405180910390f35b610180600480360381019061017b9190610c64565b610626565b60405161018d9190610bc5565b60405180910390f35b61019e61067d565b6040516101ab9190610c1d565b60405180910390f35b6101bc6106a4565b6040516101c99190610bc5565b60405180910390f35b6101da6106c8565b6040516101e79190610bc5565b60405180910390f35b5f6008905090565b5f5f5f6102036106ce565b915091505f5f610211610787565b9150915083158015610221575081155b15610258576040517fd41b1bb100000000000000000000000000000000000000000000000000000000815260040160405180910390fd5b816102695782945050505050610383565b8361027a5780945050505050610383565b5f8313158061028957505f8113155b156102c0576040517fd41b1bb100000000000000000000000000000000000000000000000000000000815260040160405180910390fd5b5f8390505f8290505f6127107f00000000000000000000000000000000000000000000000000000000000000006127106102fa9190610cbc565b836103059190610cef565b61030f9190610d5d565b90505f6127107f00000000000000000000000000000000000000000000000000000000000000006127106103439190610d8d565b8461034e9190610cef565b6103589190610d5d565b90505f8490508281101561036a578290505b81811115610376578190505b8099505050505050505050505b90565b5f7f000000000000000000000000000000000000000000000000000000000000000073ffffffffffffffffffffffffffffffffffffffff1663668a0f026040518163ffffffff1660e01b8152600401602060405180830381865afa1580156103f0573d5f5f3e3d5ffd5b505050506040513d601f19601f820116820180604052508101906104149190610dd4565b905090565b5f5f5f610424610840565b91509150811561043857809250505061046a565b6040517fd41b1bb100000000000000000000000000000000000000000000000000000000815260040160405180910390fd5b90565b5f7f0000000000000000000000000000000000000000000000000000000000000000905090565b5f5f5f6104a0846108f9565b915091505f5f6104af866109be565b91509150831580156104bf575081155b156104f6576040517fd41b1bb100000000000000000000000000000000000000000000000000000000815260040160405180910390fd5b816105075782945050505050610621565b836105185780945050505050610621565b5f8313158061052757505f8113155b1561055e576040517fd41b1bb100000000000000000000000000000000000000000000000000000000815260040160405180910390fd5b5f8390505f8290505f6127107f00000000000000000000000000000000000000000000000000000000000000006127106105989190610cbc565b836105a39190610cef565b6105ad9190610d5d565b90505f6127107f00000000000000000000000000000000000000000000000000000000000000006127106105e19190610d8d565b846105ec9190610cef565b6105f69190610d5d565b90505f84905082811015610608578290505b81811115610614578190505b8099505050505050505050505b919050565b5f5f5f61063284610a83565b915091508115610646578092505050610678565b6040517fd41b1bb100000000000000000000000000000000000000000000000000000000815260040160405180910390fd5b919050565b5f7f0000000000000000000000000000000000000000000000000000000000000000905090565b7f000000000000000000000000000000000000000000000000000000000000000081565b61271081565b5f5f7f000000000000000000000000000000000000000000000000000000000000000073ffffffffffffffffffffffffffffffffffffffff166350d25bcd6040518163ffffffff1660e01b8152600401602060405180830381865afa92505050801561075857506040513d601f19601f820116820180604052508101906107559190610e29565b60015b610767575f5f91509150610783565b5f811361077a575f5f9250925050610783565b60018192509250505b9091565b5f5f7f000000000000000000000000000000000000000000000000000000000000000073ffffffffffffffffffffffffffffffffffffffff166350d25bcd6040518163ffffffff1660e01b8152600401602060405180830381865afa92505050801561081157506040513d601f19601f8201168201806040525081019061080e9190610e29565b60015b610820575f5f9150915061083c565b5f8113610833575f5f925092505061083c565b60018192509250505b9091565b5f5f7f000000000000000000000000000000000000000000000000000000000000000073ffffffffffffffffffffffffffffffffffffffff16638205bf6a6040518163ffffffff1660e01b8152600401602060405180830381865afa9250505080156108ca57506040513d601f19601f820116820180604052508101906108c79190610dd4565b60015b6108d9575f5f915091506108f5565b5f81036108ec575f5f92509250506108f5565b60018192509250505b9091565b5f5f7f000000000000000000000000000000000000000000000000000000000000000073ffffffffffffffffffffffffffffffffffffffff1663b5ab58dc846040518263ffffffff1660e01b81526004016109549190610bc5565b602060405180830381865afa92505050801561098e57506040513d601f19601f8201168201806040525081019061098b9190610e29565b60015b61099d575f5f915091506109b9565b5f81136109b0575f5f92509250506109b9565b60018192509250505b915091565b5f5f7f000000000000000000000000000000000000000000000000000000000000000073ffffffffffffffffffffffffffffffffffffffff1663b5ab58dc846040518263ffffffff1660e01b8152600401610a199190610bc5565b602060405180830381865afa925050508015610a5357506040513d601f19601f82011682018060405250810190610a509190610e29565b60015b610a62575f5f91509150610a7e565b5f8113610a75575f5f9250925050610a7e565b60018192509250505b915091565b5f5f7f000000000000000000000000000000000000000000000000000000000000000073ffffffffffffffffffffffffffffffffffffffff1663b633620c846040518263ffffffff1660e01b8152600401610ade9190610bc5565b602060405180830381865afa925050508015610b1857506040513d601f19601f82011682018060405250810190610b159190610dd4565b60015b610b27575f5f91509150610b43565b5f8103610b3a575f5f9250925050610b43565b60018192509250505b915091565b5f60ff82169050919050565b610b5d81610b48565b82525050565b5f602082019050610b765f830184610b54565b92915050565b5f819050919050565b610b8e81610b7c565b82525050565b5f602082019050610ba75f830184610b85565b92915050565b5f819050919050565b610bbf81610bad565b82525050565b5f602082019050610bd85f830184610bb6565b92915050565b5f73ffffffffffffffffffffffffffffffffffffffff82169050919050565b5f610c0782610bde565b9050919050565b610c1781610bfd565b82525050565b5f602082019050610c305f830184610c0e565b92915050565b5f5ffd5b610c4381610bad565b8114610c4d575f5ffd5b50565b5f81359050610c5e81610c3a565b92915050565b5f60208284031215610c7957610c78610c36565b5b5f610c8684828501610c50565b91505092915050565b7f4e487b71000000000000000000000000000000000000000000000000000000005f52601160045260245ffd5b5f610cc682610bad565b9150610cd183610bad565b9250828203905081811115610ce957610ce8610c8f565b5b92915050565b5f610cf982610bad565b9150610d0483610bad565b9250828202610d1281610bad565b91508282048414831517610d2957610d28610c8f565b5b5092915050565b7f4e487b71000000000000000000000000000000000000000000000000000000005f52601260045260245ffd5b5f610d6782610bad565b9150610d7283610bad565b925082610d8257610d81610d30565b5b828204905092915050565b5f610d9782610bad565b9150610da283610bad565b9250828201905080821115610dba57610db9610c8f565b5b92915050565b5f81519050610dce81610c3a565b92915050565b5f60208284031215610de957610de8610c36565b5b5f610df684828501610dc0565b91505092915050565b610e0881610b7c565b8114610e12575f5ffd5b50565b5f81519050610e2381610dff565b92915050565b5f60208284031215610e3e57610e3d610c36565b5b5f610e4b84828501610e15565b9150509291505056fea2646970667358221220543def0c10ac14f837abfbc1bf4a56ba1265a10cbbb629e8dcfadc6393de2e8a64736f6c634300081c0033",
  "methodIdentifiers": {
    "MAX_BPS()": "fd967f47",
    "decimals()": "313ce567",
    "getAnswer(uint256)": "b5ab58dc",
    "getTimestamp(uint256)": "b633620c",
    "latestAnswer()": "50d25bcd",
    "latestRound()": "668a0f02",
    "latestTimestamp()": "8205bf6a",
    "maxDiffBps()": "f40a1cbf",
    "primary()": "c6dbdf61",
    "secondary()": "9d3c8cc4"
  },
  "id": 19
}