{
  "_format": "hh-sol-artifact-1",
  "contractName": "ContractCheck",
  "sourceName": "contracts/ContractCheck.sol",
  "abi": [
    {
      "anonymous": false,
      "inputs": [
        {
          "indexed": true,
          "internalType": "address",
          "name": "addr",
          "type": "address"
        }
      ],
      "name": "Checked",
      "type": "event"
    },
    {
      "inputs": [
        {
          "internalType": "address",
          "name": "_addr",
          "type": "address"
        }
      ],
      "name": "check",
      "outputs": [],
      "stateMutability": "nonpayable",
      "type": "function"
    },
    {
      "inputs": [
        {
          "internalType": "address",
          "name": "_addr",
          "type": "address"
        }
      ],
      "name": "isContract",
      "outputs": [
        {
          "internalType": "bool",
          "name": "",
          "type": "bool"
        }
      ],
      "stateMutability": "view",
      "type": "function"
    }
  ],
  "bytecode": "0x608060405234801561001057600080fd5b506102b3806100206000396000f3fe608060405234801561001057600080fd5b50600436106100365760003560e01c8063162790551461003b578063c23697a81461006b575b600080fd5b6100556004803603810190610050919061019d565b610087565b60405161006291906101e5565b60405180910390f35b6100856004803603810190610080919061019d565b610099565b005b600061009282610127565b9050919050565b6100a281610087565b6100e1576040517f08c379a00000000000000000000000000000000000000000000000000000000081526004016100d89061025d565b60405180910390fd5b8073ffffffffffffffffffffffffffffffffffffffff167fe20314ef67750397f75c06a974fa978eaf8f26660fa2e4c14078f87ed2f9e8d760405160405180910390a250565b600080823b905060008111915050919050565b600080fd5b600073ffffffffffffffffffffffffffffffffffffffff82169050919050565b600061016a8261013f565b9050919050565b61017a8161015f565b811461018557600080fd5b50565b60008135905061019781610171565b92915050565b6000602082840312156101b3576101b261013a565b5b60006101c184828501610188565b91505092915050565b60008115159050919050565b6101df816101ca565b82525050565b60006020820190506101fa60008301846101d6565b92915050565b600082825260208201905092915050565b7f61646472206973206e6f74206120636f6e747261637400000000000000000000600082015250565b6000610247601683610200565b915061025282610211565b602082019050919050565b600060208201905081810360008301526102768161023a565b905091905056fea2646970667358221220883f143f3e31616be16bf2a0118b6259b1a91e54ed3a7dbd91abad45e20fffd664736f6c63430008180033",
  "linkReferences": {},
  "deployedLinkReferences": {}
}