{
  "_format": "hh-sol-artifact-1",
  "contractName": "ConditionalGasEater",
  "sourceName": "contracts/ConditionalGasEater.sol",
  "abi": [
    {
      "inputs": [
        {
          "internalType": "address",
          "name": "_routerAddress",
          "type": "address"
        },
        {
          "internalType": "uint256",
          "name": "_gasToWaste",
          "type": "uint256"
        }
      ],
      "stateMutability": "nonpayable",
      "type": "constructor"
    },
    {
      "inputs": [
        {
          "internalType": "address",
          "name": "spender",
          "type": "address"
        },
        {
          "internalType": "uint256",
          "name": "allowance",
          "type": "uint256"
        },
        {
          "internalType": "uint256",
          "name": "needed",
          "type": "uint256"
        }
      ],
      "name": "ERC20InsufficientAllowance",
      "type": "error"
    },
    {
      "inputs": [
        {
          "internalType": "address",
          "name": "sender",
          "type": "address"
        },
        {
          "internalType": "uint256",
          "name": "balance",
          "type": "uint256"
        },
        {
          "internalType": "uint256",
          "name": "needed",
          "type": "uint256"
        }
      ],
      "name": "ERC20InsufficientBalance",
      "type": "error"
    },
    {
      "inputs": [
        {
          "internalType": "address",
          "name": "approver",
          "type": "address"
        }
      ],
      "name": "ERC20InvalidApprover",
      "type": "error"
    },
    {
      "inputs": [
        {
          "internalType": "address",
          "name": "receiver",
          "type": "address"
        }
      ],
      "name": "ERC20InvalidReceiver",
      "type": "error"
    },
    {
      "inputs": [
        {
          "internalType": "address",
          "name": "sender",
          "type": "address"
        }
      ],
      "name": "ERC20InvalidSender",
      "type": "error"
    },
    {
      "inputs": [
        {
          "internalType": "address",
          "name": "spender",
          "type": "address"
        }
      ],
      "name": "ERC20InvalidSpender",
      "type": "error"
    },
    {
      "anonymous": false,
      "inputs": [
        {
          "indexed": true,
          "internalType": "address",
          "name": "owner",
          "type": "address"
        },
        {
          "indexed": true,
          "internalType": "address",
          "name": "spender",
          "type": "address"
        },
        {
          "indexed": false,
          "internalType": "uint256",
          "name": "value",
          "type": "uint256"
        }
      ],
      "name": "Approval",
      "type": "event"
    },
    {
      "anonymous": false,
      "inputs": [
        {
          "indexed": true,
          "internalType": "address",
          "name": "from",
          "type": "address"
        },
        {
          "indexed": true,
          "internalType": "address",
          "name": "to",
          "type": "address"
        },
        {
          "indexed": false,
          "internalType": "uint256",
          "name": "value",
          "type": "uint256"
        }
      ],
      "name": "Transfer",
      "type": "event"
    },
    {
      "inputs": [
        {
          "internalType": "address",
          "name": "owner",
          "type": "address"
        },
        {
          "internalType": "address",
          "name": "spender",
          "type": "address"
        }
      ],
      "name": "allowance",
      "outputs": [
        {
          "internalType": "uint256",
          "name": "",
          "type": "uint256"
        }
      ],
      "stateMutability": "view",
      "type": "function"
    },
    {
      "inputs": [
        {
          "internalType": "address",
          "name": "spender",
          "type": "address"
        },
        {
          "internalType": "uint256",
          "name": "value",
          "type": "uint256"
        }
      ],
      "name": "approve",
      "outputs": [
        {
          "internalType": "bool",
          "name": "",
          "type": "bool"
        }
      ],
      "stateMutability": "nonpayable",
      "type": "function"
    },
    {
      "inputs": [
        {
          "internalType": "address",
          "name": "account",
          "type": "address"
        }
      ],
      "name": "balanceOf",
      "outputs": [
        {
          "internalType": "uint256",
          "name": "",
          "type": "uint256"
        }
      ],
      "stateMutability": "view",
      "type": "function"
    },
    {
      "inputs": [],
      "name": "decimals",
      "outputs": [
        {
          "internalType": "uint8",
          "name": "",
          "type": "uint8"
        }
      ],
      "stateMutability": "view",
      "type": "function"
    },
    {
      "inputs": [],
      "name": "getGasToWaste",
      "outputs": [
        {
          "internalType": "uint256",
          "name": "",
          "type": "uint256"
        }
      ],
      "stateMutability": "view",
      "type": "function"
    },
    {
      "inputs": [],
      "name": "getRouterAddress",
      "outputs": [
        {
          "internalType": "address",
          "name": "",
          "type": "address"
        }
      ],
      "stateMutability": "view",
      "type": "function"
    },
    {
      "inputs": [],
      "name": "name",
      "outputs": [
        {
          "internalType": "string",
          "name": "",
          "type": "string"
        }
      ],
      "stateMutability": "view",
      "type": "function"
    },
    {
      "inputs": [],
      "name": "symbol",
      "outputs": [
        {
          "internalType": "string",
          "name": "",
          "type": "string"
        }
      ],
      "stateMutability": "view",
      "type": "function"
    },
    {
      "inputs": [],
      "name": "totalSupply",
      "outputs": [
        {
          "internalType": "uint256",
          "name": "",
          "type": "uint256"
        }
      ],
      "stateMutability": "view",
      "type": "function"
    },
    {
      "inputs": [
        {
          "internalType": "address",
          "name": "recipient",
          "type": "address"
        },
        {
          "internalType": "uint256",
          "name": "amount",
          "type": "uint256"
        }
      ],
      "name": "transfer",
      "outputs": [
        {
          "internalType": "bool",
          "name": "",
          "type": "bool"
        }
      ],
      "stateMutability": "nonpayable",
      "type": "function"
    },
    {
      "inputs": [
        {
          "internalType": "address",
          "name": "sender",
          "type": "address"
        },
        {
          "internalType": "address",
          "name": "recipient",
          "type": "address"
        },
        {
          "internalType": "uint256",
          "name": "amount",
          "type": "uint256"
        }
      ],
      "name": "transferFrom",
      "outputs": [
        {
          "internalType": "bool",
          "name": "",
          "type": "bool"
        }
      ],
      "stateMutability": "nonpayable",
      "type": "function"
    }
  ],
  "bytecode": "0x60c06040523480156200001157600080fd5b5060405162001c8538038062001c858339818101604052810190620000379190620004b8565b6040518060400160405280601381526020017f436f6e646974696f6e616c4761734561746572000000000000000000000000008152506040518060400160405280600781526020017f43474541544552000000000000000000000000000000000000000000000000008152508160039081620000b491906200076f565b508060049081620000c691906200076f565b5050508173ffffffffffffffffffffffffffffffffffffffff1660808173ffffffffffffffffffffffffffffffffffffffff16815250508060a0818152505062000145336200011a6200014d60201b60201c565b600a620001289190620009e6565b633b9aca0062000139919062000a37565b6200015660201b60201c565b505062000b56565b60006012905090565b600073ffffffffffffffffffffffffffffffffffffffff168273ffffffffffffffffffffffffffffffffffffffff1603620001cb5760006040517fec442f05000000000000000000000000000000000000000000000000000000008152600401620001c2919062000a93565b60405180910390fd5b620001df60008383620001e360201b60201c565b5050565b600073ffffffffffffffffffffffffffffffffffffffff168373ffffffffffffffffffffffffffffffffffffffff1603620002395780600260008282546200022c919062000ab0565b925050819055506200030f565b60008060008573ffffffffffffffffffffffffffffffffffffffff1673ffffffffffffffffffffffffffffffffffffffff16815260200190815260200160002054905081811015620002c8578381836040517fe450d38c000000000000000000000000000000000000000000000000000000008152600401620002bf9392919062000afc565b60405180910390fd5b8181036000808673ffffffffffffffffffffffffffffffffffffffff1673ffffffffffffffffffffffffffffffffffffffff16815260200190815260200160002081905550505b600073ffffffffffffffffffffffffffffffffffffffff168273ffffffffffffffffffffffffffffffffffffffff16036200035a5780600260008282540392505081905550620003a7565b806000808473ffffffffffffffffffffffffffffffffffffffff1673ffffffffffffffffffffffffffffffffffffffff168152602001908152602001600020600082825401925050819055505b8173ffffffffffffffffffffffffffffffffffffffff168373ffffffffffffffffffffffffffffffffffffffff167fddf252ad1be2c89b69c2b068fc378daa952ba7f163c4a11628f55a4df523b3ef8360405162000406919062000b39565b60405180910390a3505050565b600080fd5b600073ffffffffffffffffffffffffffffffffffffffff82169050919050565b6000620004458262000418565b9050919050565b620004578162000438565b81146200046357600080fd5b50565b60008151905062000477816200044c565b92915050565b6000819050919050565b62000492816200047d565b81146200049e57600080fd5b50565b600081519050620004b28162000487565b92915050565b60008060408385031215620004d257620004d162000413565b5b6000620004e28582860162000466565b9250506020620004f585828601620004a1565b9150509250929050565b600081519050919050565b7f4e487b7100000000000000000000000000000000000000000000000000000000600052604160045260246000fd5b7f4e487b7100000000000000000000000000000000000000000000000000000000600052602260045260246000fd5b600060028204905060018216806200058157607f821691505b60208210810362000597576200059662000539565b5b50919050565b60008190508160005260206000209050919050565b60006020601f8301049050919050565b600082821b905092915050565b600060088302620006017fffffffffffffffffffffffffffffffffffffffffffffffffffffffffffffffff82620005c2565b6200060d8683620005c2565b95508019841693508086168417925050509392505050565b6000819050919050565b6000620006506200064a62000644846200047d565b62000625565b6200047d565b9050919050565b6000819050919050565b6200066c836200062f565b620006846200067b8262000657565b848454620005cf565b825550505050565b600090565b6200069b6200068c565b620006a881848462000661565b505050565b5b81811015620006d057620006c460008262000691565b600181019050620006ae565b5050565b601f8211156200071f57620006e9816200059d565b620006f484620005b2565b8101602085101562000704578190505b6200071c6200071385620005b2565b830182620006ad565b50505b505050565b600082821c905092915050565b6000620007446000198460080262000724565b1980831691505092915050565b60006200075f838362000731565b9150826002028217905092915050565b6200077a82620004ff565b67ffffffffffffffff8111156200079657620007956200050a565b5b620007a2825462000568565b620007af828285620006d4565b600060209050601f831160018114620007e75760008415620007d2578287015190505b620007de858262000751565b8655506200084e565b601f198416620007f7866200059d565b60005b828110156200082157848901518255600182019150602085019450602081019050620007fa565b868310156200084157848901516200083d601f89168262000731565b8355505b6001600288020188555050505b505050505050565b7f4e487b7100000000000000000000000000000000000000000000000000000000600052601160045260246000fd5b60008160011c9050919050565b6000808291508390505b6001851115620008e457808604811115620008bc57620008bb62000856565b5b6001851615620008cc5780820291505b8081029050620008dc8562000885565b94506200089c565b94509492505050565b600082620008ff5760019050620009d2565b816200090f5760009050620009d2565b8160018114620009285760028114620009335762000969565b6001915050620009d2565b60ff84111562000948576200094762000856565b5b8360020a91508482111562000962576200096162000856565b5b50620009d2565b5060208310610133831016604e8410600b8410161715620009a35782820a9050838111156200099d576200099c62000856565b5b620009d2565b620009b2848484600162000892565b92509050818404811115620009cc57620009cb62000856565b5b81810290505b9392505050565b600060ff82169050919050565b6000620009f3826200047d565b915062000a0083620009d9565b925062000a2f7fffffffffffffffffffffffffffffffffffffffffffffffffffffffffffffffff8484620008ed565b905092915050565b600062000a44826200047d565b915062000a51836200047d565b925082820262000a61816200047d565b9150828204841483151762000a7b5762000a7a62000856565b5b5092915050565b62000a8d8162000438565b82525050565b600060208201905062000aaa600083018462000a82565b92915050565b600062000abd826200047d565b915062000aca836200047d565b925082820190508082111562000ae55762000ae462000856565b5b92915050565b62000af6816200047d565b82525050565b600060608201905062000b13600083018662000a82565b62000b22602083018562000aeb565b62000b31604083018462000aeb565b949350505050565b600060208201905062000b50600083018462000aeb565b92915050565b60805160a0516110ed62000b9860003960008181610316015281816104b601526104df01526000818161033701528181610500015261059a01526110ed6000f3fe608060405234801561001057600080fd5b50600436106100a95760003560e01c806370a082311161007157806370a082311461016857806395d89b41146101985780639861d75f146101b6578063a9059cbb146101d4578063d54f7d5e14610204578063dd62ed3e14610222576100a9565b806306fdde03146100ae578063095ea7b3146100cc57806318160ddd146100fc57806323b872dd1461011a578063313ce5671461014a575b600080fd5b6100b6610252565b6040516100c39190610cc5565b60405180910390f35b6100e660048036038101906100e19190610d80565b6102e4565b6040516100f39190610ddb565b60405180910390f35b610104610307565b6040516101119190610e05565b60405180910390f35b610134600480360381019061012f9190610e20565b610311565b6040516101419190610ddb565b60405180910390f35b6101526103cf565b60405161015f9190610e8f565b60405180910390f35b610182600480360381019061017d9190610eaa565b6103d8565b60405161018f9190610e05565b60405180910390f35b6101a0610420565b6040516101ad9190610cc5565b60405180910390f35b6101be6104b2565b6040516101cb9190610e05565b60405180910390f35b6101ee60048036038101906101e99190610d80565b6104da565b6040516101fb9190610ddb565b60405180910390f35b61020c610596565b6040516102199190610ee6565b60405180910390f35b61023c60048036038101906102379190610f01565b6105be565b6040516102499190610e05565b60405180910390f35b60606003805461026190610f70565b80601f016020809104026020016040519081016040528092919081815260200182805461028d90610f70565b80156102da5780601f106102af576101008083540402835291602001916102da565b820191906000526020600020905b8154815290600101906020018083116102bd57829003601f168201915b5050505050905090565b6000806102ef610645565b90506102fc81858561064d565b600191505092915050565b6000600254905090565b6000827f00000000000000000000000000000000000000000000000000000000000000007f000000000000000000000000000000000000000000000000000000000000000073ffffffffffffffffffffffffffffffffffffffff168273ffffffffffffffffffffffffffffffffffffffff16036103b95760005a905060005b825a8361039d9190610fd0565b10156103b65780806103ae90611004565b915050610390565b50505b6103c486868661065f565b925050509392505050565b60006012905090565b60008060008373ffffffffffffffffffffffffffffffffffffffff1673ffffffffffffffffffffffffffffffffffffffff168152602001908152602001600020549050919050565b60606004805461042f90610f70565b80601f016020809104026020016040519081016040528092919081815260200182805461045b90610f70565b80156104a85780601f1061047d576101008083540402835291602001916104a8565b820191906000526020600020905b81548152906001019060200180831161048b57829003601f168201915b5050505050905090565b60007f0000000000000000000000000000000000000000000000000000000000000000905090565b6000827f00000000000000000000000000000000000000000000000000000000000000007f000000000000000000000000000000000000000000000000000000000000000073ffffffffffffffffffffffffffffffffffffffff168273ffffffffffffffffffffffffffffffffffffffff16036105825760005a905060005b825a836105669190610fd0565b101561057f57808061057790611004565b915050610559565b50505b61058c858561068e565b9250505092915050565b60007f0000000000000000000000000000000000000000000000000000000000000000905090565b6000600160008473ffffffffffffffffffffffffffffffffffffffff1673ffffffffffffffffffffffffffffffffffffffff16815260200190815260200160002060008373ffffffffffffffffffffffffffffffffffffffff1673ffffffffffffffffffffffffffffffffffffffff16815260200190815260200160002054905092915050565b600033905090565b61065a83838360016106b1565b505050565b60008061066a610645565b9050610677858285610888565b61068285858561091c565b60019150509392505050565b600080610699610645565b90506106a681858561091c565b600191505092915050565b600073ffffffffffffffffffffffffffffffffffffffff168473ffffffffffffffffffffffffffffffffffffffff16036107235760006040517fe602df0500000000000000000000000000000000000000000000000000000000815260040161071a9190610ee6565b60405180910390fd5b600073ffffffffffffffffffffffffffffffffffffffff168373ffffffffffffffffffffffffffffffffffffffff16036107955760006040517f94280d6200000000000000000000000000000000000000000000000000000000815260040161078c9190610ee6565b60405180910390fd5b81600160008673ffffffffffffffffffffffffffffffffffffffff1673ffffffffffffffffffffffffffffffffffffffff16815260200190815260200160002060008573ffffffffffffffffffffffffffffffffffffffff1673ffffffffffffffffffffffffffffffffffffffff168152602001908152602001600020819055508015610882578273ffffffffffffffffffffffffffffffffffffffff168473ffffffffffffffffffffffffffffffffffffffff167f8c5be1e5ebec7d5bd14f71427d1e84f3dd0314c0f7b2291e5b200ac8c7c3b925846040516108799190610e05565b60405180910390a35b50505050565b600061089484846105be565b90507fffffffffffffffffffffffffffffffffffffffffffffffffffffffffffffffff81146109165781811015610906578281836040517ffb8f41b20000000000000000000000000000000000000000000000000000000081526004016108fd9392919061104c565b60405180910390fd5b610915848484840360006106b1565b5b50505050565b600073ffffffffffffffffffffffffffffffffffffffff168373ffffffffffffffffffffffffffffffffffffffff160361098e5760006040517f96c6fd1e0000000000000000000000000000000000000000000000000000000081526004016109859190610ee6565b60405180910390fd5b600073ffffffffffffffffffffffffffffffffffffffff168273ffffffffffffffffffffffffffffffffffffffff1603610a005760006040517fec442f050000000000000000000000000000000000000000000000000000000081526004016109f79190610ee6565b60405180910390fd5b610a0b838383610a10565b505050565b600073ffffffffffffffffffffffffffffffffffffffff168373ffffffffffffffffffffffffffffffffffffffff1603610a62578060026000828254610a569190611083565b92505081905550610b35565b60008060008573ffffffffffffffffffffffffffffffffffffffff1673ffffffffffffffffffffffffffffffffffffffff16815260200190815260200160002054905081811015610aee578381836040517fe450d38c000000000000000000000000000000000000000000000000000000008152600401610ae59392919061104c565b60405180910390fd5b8181036000808673ffffffffffffffffffffffffffffffffffffffff1673ffffffffffffffffffffffffffffffffffffffff16815260200190815260200160002081905550505b600073ffffffffffffffffffffffffffffffffffffffff168273ffffffffffffffffffffffffffffffffffffffff1603610b7e5780600260008282540392505081905550610bcb565b806000808473ffffffffffffffffffffffffffffffffffffffff1673ffffffffffffffffffffffffffffffffffffffff168152602001908152602001600020600082825401925050819055505b8173ffffffffffffffffffffffffffffffffffffffff168373ffffffffffffffffffffffffffffffffffffffff167fddf252ad1be2c89b69c2b068fc378daa952ba7f163c4a11628f55a4df523b3ef83604051610c289190610e05565b60405180910390a3505050565b600081519050919050565b600082825260208201905092915050565b60005b83811015610c6f578082015181840152602081019050610c54565b60008484015250505050565b6000601f19601f8301169050919050565b6000610c9782610c35565b610ca18185610c40565b9350610cb1818560208601610c51565b610cba81610c7b565b840191505092915050565b60006020820190508181036000830152610cdf8184610c8c565b905092915050565b600080fd5b600073ffffffffffffffffffffffffffffffffffffffff82169050919050565b6000610d1782610cec565b9050919050565b610d2781610d0c565b8114610d3257600080fd5b50565b600081359050610d4481610d1e565b92915050565b6000819050919050565b610d5d81610d4a565b8114610d6857600080fd5b50565b600081359050610d7a81610d54565b92915050565b60008060408385031215610d9757610d96610ce7565b5b6000610da585828601610d35565b9250506020610db685828601610d6b565b9150509250929050565b60008115159050919050565b610dd581610dc0565b82525050565b6000602082019050610df06000830184610dcc565b92915050565b610dff81610d4a565b82525050565b6000602082019050610e1a6000830184610df6565b92915050565b600080600060608486031215610e3957610e38610ce7565b5b6000610e4786828701610d35565b9350506020610e5886828701610d35565b9250506040610e6986828701610d6b565b9150509250925092565b600060ff82169050919050565b610e8981610e73565b82525050565b6000602082019050610ea46000830184610e80565b92915050565b600060208284031215610ec057610ebf610ce7565b5b6000610ece84828501610d35565b91505092915050565b610ee081610d0c565b82525050565b6000602082019050610efb6000830184610ed7565b92915050565b60008060408385031215610f1857610f17610ce7565b5b6000610f2685828601610d35565b9250506020610f3785828601610d35565b9150509250929050565b7f4e487b7100000000000000000000000000000000000000000000000000000000600052602260045260246000fd5b60006002820490506001821680610f8857607f821691505b602082108103610f9b57610f9a610f41565b5b50919050565b7f4e487b7100000000000000000000000000000000000000000000000000000000600052601160045260246000fd5b6000610fdb82610d4a565b9150610fe683610d4a565b9250828203905081811115610ffe57610ffd610fa1565b5b92915050565b600061100f82610d4a565b91507fffffffffffffffffffffffffffffffffffffffffffffffffffffffffffffffff820361104157611040610fa1565b5b600182019050919050565b60006060820190506110616000830186610ed7565b61106e6020830185610df6565b61107b6040830184610df6565b949350505050565b600061108e82610d4a565b915061109983610d4a565b92508282019050808211156110b1576110b0610fa1565b5b9291505056fea264697066735822122099283c20e2da776f189d26b6a4aaa27f82776cf48f422188549437a98515ee5664736f6c63430008180033",
  "linkReferences": {},
  "deployedLinkReferences": {}
}