{
  "abi": [
    {
      "type": "constructor",
      "inputs": [],
      "stateMutability": "nonpayable"
    },
    {
      "type": "function",
      "name": "getAnswer",
      "inputs": [
        {
          "name": "roundId",
          "type": "uint256",
          "internalType": "uint256"
        }
      ],
      "outputs": [
        {
          "name": "",
          "type": "int256",
          "internalType": "int256"
        }
      ],
      "stateMutability": "view"
    },
    {
      "type": "function",
      "name": "getTimestamp",
      "inputs": [
        {
          "name": "roundId",
          "type": "uint256",
          "internalType": "uint256"
        }
      ],
      "outputs": [
        {
          "name": "",
          "type": "uint256",
          "internalType": "uint256"
        }
      ],
      "stateMutability": "view"
    },
    {
      "type": "function",
      "name": "latestAnswer",
      "inputs": [],
      "outputs": [
        {
          "name": "",
          "type": "int256",
          "internalType": "int256"
        }
      ],
      "stateMutability": "view"
    },
    {
      "type": "function",
      "name": "latestRound",
      "inputs": [],
      "outputs": [
        {
          "name": "",
          "type": "uint256",
          "internalType": "uint256"
        }
      ],
      "stateMutability": "view"
    },
    {
      "type": "function",
      "name": "latestTimestamp",
      "inputs": [],
      "outputs": [
        {
          "name": "",
          "type": "uint256",
          "internalType": "uint256"
        }
      ],
      "stateMutability": "view"
    },
    {
      "type": "function",
      "name": "pushAnswer",
      "inputs": [
        {
          "name": "answer_",
          "type": "int256",
          "internalType": "int256"
        },
        {
          "name": "timestamp_",
          "type": "uint256",
          "internalType": "uint256"
        }
      ],
      "outputs": [
        {
          "name": "newRoundId",
          "type": "uint256",
          "internalType": "uint256"
        }
      ],
      "stateMutability": "nonpayable"
    },
    {
      "type": "function",
      "name": "setRoundData",
      "inputs": [
        {
          "name": "roundId_",
          "type": "uint256",
          "internalType": "uint256"
        },
        {
          "name": "answer_",
          "type": "int256",
          "internalType": "int256"
        },
        {
          "name": "timestamp_",
          "type": "uint256",
          "internalType": "uint256"
        }
      ],
      "outputs": [],
      "stateMutability": "nonpayable"
    },
    {
      "type": "event",
      "name": "AnswerUpdated",
      "inputs": [
        {
          "name": "current",
          "type": "int256",
          "indexed": true,
          "internalType": "int256"
        },
        {
          "name": "roundId",
          "type": "uint256",
          "indexed": true,
          "internalType": "uint256"
        },
        {
          "name": "updatedAt",
          "type": "uint256",
          "indexed": false,
          "internalType": "uint256"
        }
      ],
      "anonymous": false
    },
    {
      "type": "event",
      "name": "NewRound",
      "inputs": [
        {
          "name": "roundId",
          "type": "uint256",
          "indexed": true,
          "internalType": "uint256"
        },
        {
          "name": "startedBy",
          "type": "address",
          "indexed": true,
          "internalType": "address"
        },
        {
          "name": "startedAt",
          "type": "uint256",
          "indexed": false,
          "internalType": "uint256"
        }
      ],
      "anonymous": false
    },
    {
      "type": "error",
      "name": "NoDataPresent",
      "inputs": []
    }
  ],
  "bytecode": "0x6080604052348015600e575f5ffd5b506001808190555060405180606001604052805f815260200160018152602001600115158152505f5f600181526020019081526020015f205f820151815f0155602082015181600101556040820151816002015f6101000a81548160ff0219169083151502179055509050506107ed806100875f395ff3fe608060405234801561000f575f5ffd5b506004361061007a575f3560e01c8063668a0f0211610059578063668a0f02146100e85780638205bf6a14610106578063b5ab58dc14610124578063b633620c146101545761007a565b8062c61acb1461007e57806322042c681461009a57806350d25bcd146100ca575b5f5ffd5b6100986004803603810190610093919061064e565b610184565b005b6100b460048036038101906100af919061069e565b610285565b6040516100c191906106eb565b60405180910390f35b6100d261038d565b6040516100df9190610713565b60405180910390f35b6100f0610420565b6040516100fd91906106eb565b60405180910390f35b61010e610429565b60405161011b91906106eb565b60405180910390f35b61013e6004803603810190610139919061072c565b6104bd565b60405161014b9190610713565b60405180910390f35b61016e6004803603810190610169919061072c565b610550565b60405161017b91906106eb565b60405180910390f35b6040518060600160405280838152602001828152602001600115158152505f5f8581526020019081526020015f205f820151815f0155602082015181600101556040820151816002015f6101000a81548160ff0219169083151502179055509050506001548311156101f857826001819055505b3373ffffffffffffffffffffffffffffffffffffffff16837f0109fc6f55cf40689f02fbaad7af7fe7bbac8a3d2186600afc7d3e10cac602718360405161023f91906106eb565b60405180910390a382827f0559884fd3a460db3073b7fc896cc77986f16e378210ded43186175bf646fc5f8360405161027891906106eb565b60405180910390a3505050565b5f600180546102949190610784565b9050806001819055506040518060600160405280848152602001838152602001600115158152505f5f8381526020019081526020015f205f820151815f0155602082015181600101556040820151816002015f6101000a81548160ff0219169083151502179055509050503373ffffffffffffffffffffffffffffffffffffffff16817f0109fc6f55cf40689f02fbaad7af7fe7bbac8a3d2186600afc7d3e10cac602718460405161034691906106eb565b60405180910390a380837f0559884fd3a460db3073b7fc896cc77986f16e378210ded43186175bf646fc5f8460405161037f91906106eb565b60405180910390a392915050565b5f5f5f5f60015481526020019081526020015f206040518060600160405290815f820154815260200160018201548152602001600282015f9054906101000a900460ff16151515158152505090508060400151610416576040517fbb25870000000000000000000000000000000000000000000000000000000000815260040160405180910390fd5b805f015191505090565b5f600154905090565b5f5f5f5f60015481526020019081526020015f206040518060600160405290815f820154815260200160018201548152602001600282015f9054906101000a900460ff161515151581525050905080604001516104b2576040517fbb25870000000000000000000000000000000000000000000000000000000000815260040160405180910390fd5b806020015191505090565b5f5f5f5f8481526020019081526020015f206040518060600160405290815f820154815260200160018201548152602001600282015f9054906101000a900460ff16151515158152505090508060400151610544576040517fbb25870000000000000000000000000000000000000000000000000000000000815260040160405180910390fd5b805f0151915050919050565b5f5f5f5f8481526020019081526020015f206040518060600160405290815f820154815260200160018201548152602001600282015f9054906101000a900460ff161515151581525050905080604001516105d7576040517fbb25870000000000000000000000000000000000000000000000000000000000815260040160405180910390fd5b8060200151915050919050565b5f5ffd5b5f819050919050565b6105fa816105e8565b8114610604575f5ffd5b50565b5f81359050610615816105f1565b92915050565b5f819050919050565b61062d8161061b565b8114610637575f5ffd5b50565b5f8135905061064881610624565b92915050565b5f5f5f60608486031215610665576106646105e4565b5b5f61067286828701610607565b93505060206106838682870161063a565b925050604061069486828701610607565b9150509250925092565b5f5f604083850312156106b4576106b36105e4565b5b5f6106c18582860161063a565b92505060206106d285828601610607565b9150509250929050565b6106e5816105e8565b82525050565b5f6020820190506106fe5f8301846106dc565b92915050565b61070d8161061b565b82525050565b5f6020820190506107265f830184610704565b92915050565b5f60208284031215610741576107406105e4565b5b5f61074e84828501610607565b91505092915050565b7f4e487b71000000000000000000000000000000000000000000000000000000005f52601160045260245ffd5b5f61078e826105e8565b9150610799836105e8565b92508282019050808211156107b1576107b0610757565b5b9291505056fea26469706673582212203750a614d0d446c0cb4fedd2e3b16348a7c9bb76f863a83fc28c34ce7f48213d64736f6c634300081c0033",
  "methodIdentifiers": {
    "getAnswer(uint256)": "b5ab58dc",
    "getTimestamp(uint256)": "b633620c",
    "latestAnswer()": "50d25bcd",
    "latestRound()": "668a0f02",
    "latestTimestamp()": "8205bf6a",
    "pushAnswer(int256,uint256)": "22042c68",
    "setRoundData(uint256,int256,uint256)": "00c61acb"
  },
  "id": 25
}