{
  "_format": "hh-sol-artifact-1",
  "contractName": "RevertingReceiver",
  "sourceName": "contracts/RevertingReceiver.sol",
  "abi": [
    {
      "inputs": [
        {
          "internalType": "address",
          "name": "user",
          "type": "address"
        },
        {
          "internalType": "uint256",
          "name": "intentId",
          "type": "uint256"
        },
        {
          "internalType": "address",
          "name": "assetIn",
          "type": "address"
        },
        {
          "internalType": "uint256",
          "name": "amountIn",
          "type": "uint256"
        },
        {
          "internalType": "address",
          "name": "assetOut",
          "type": "address"
        },
        {
          "internalType": "uint256",
          "name": "amountOut",
          "type": "uint256"
        },
        {
          "internalType": "bytes",
          "name": "data",
          "type": "bytes"
        }
      ],
      "name": "execute",
      "outputs": [
        {
          "internalType": "bytes4",
          "name": "",
          "type": "bytes4"
        }
      ],
      "stateMutability": "nonpayable",
      "type": "function"
    }
  ],
  "bytecode": "0x608060405234801561001057600080fd5b5061036b806100206000396000f3fe608060405234801561001057600080fd5b506004361061002b5760003560e01c806378f3095214610030575b600080fd5b61004a600480360381019061004591906101a0565b610060565b604051610057919061029d565b60405180910390f35b60006040517f08c379a000000000000000000000000000000000000000000000000000000000815260040161009490610315565b60405180910390fd5b600080fd5b600080fd5b600073ffffffffffffffffffffffffffffffffffffffff82169050919050565b60006100d2826100a7565b9050919050565b6100e2816100c7565b81146100ed57600080fd5b50565b6000813590506100ff816100d9565b92915050565b6000819050919050565b61011881610105565b811461012357600080fd5b50565b6000813590506101358161010f565b92915050565b600080fd5b600080fd5b600080fd5b60008083601f8401126101605761015f61013b565b5b8235905067ffffffffffffffff81111561017d5761017c610140565b5b60208301915083600182028301111561019957610198610145565b5b9250929050565b60008060008060008060008060e0898b0312156101c0576101bf61009d565b5b60006101ce8b828c016100f0565b98505060206101df8b828c01610126565b97505060406101f08b828c016100f0565b96505060606102018b828c01610126565b95505060806102128b828c016100f0565b94505060a06102238b828c01610126565b93505060c089013567ffffffffffffffff811115610244576102436100a2565b5b6102508b828c0161014a565b92509250509295985092959890939650565b60007fffffffff0000000000000000000000000000000000000000000000000000000082169050919050565b61029781610262565b82525050565b60006020820190506102b2600083018461028e565b92915050565b600082825260208201905092915050565b7f72656365697665722072656a6563746564000000000000000000000000000000600082015250565b60006102ff6011836102b8565b915061030a826102c9565b602082019050919050565b6000602082019050818103600083015261032e816102f2565b905091905056fea2646970667358221220e540d872515a93bbc3783a9c5948e343c82b5383f91ba1d6cc305b4b0b866ea364736f6c63430008180033",
  "linkReferences": {},
  "deployedLinkReferences": {}
}