{
  "address": "0x2D8739f3b808794DC8d4eea5bD683a3CD6f52c05",
  "abi": [
    {
      "anonymous": false,
      "inputs": [
        {
          "indexed": true,
          "internalType": "uint256",
          "name": "streamId",
          "type": "uint256"
        },
        {
          "indexed": true,
          "internalType": "address",
          "name": "sender",
          "type": "address"
        },
        {
          "indexed": true,
          "internalType": "address",
          "name": "recipient",
          "type": "address"
        },
        {
          "indexed": false,
          "internalType": "uint256",
          "name": "senderBalance",
          "type": "uint256"
        },
        {
          "indexed": false,
          "internalType": "uint256",
          "name": "recipientBalance",
          "type": "uint256"
        }
      ],
      "name": "CancelStream",
      "type": "event"
    },
    {
      "anonymous": false,
      "inputs": [
        {
          "indexed": true,
          "internalType": "uint256",
          "name": "streamId",
          "type": "uint256"
        },
        {
          "indexed": true,
          "internalType": "address",
          "name": "sender",
          "type": "address"
        },
        {
          "indexed": true,
          "internalType": "address",
          "name": "recipient",
          "type": "address"
        },
        {
          "indexed": false,
          "internalType": "uint256",
          "name": "deposit",
          "type": "uint256"
        },
        {
          "indexed": false,
          "internalType": "address",
          "name": "tokenAddress",
          "type": "address"
        },
        {
          "indexed": false,
          "internalType": "uint256",
          "name": "startTime",
          "type": "uint256"
        },
        {
          "indexed": false,
          "internalType": "uint256",
          "name": "stopTime",
          "type": "uint256"
        }
      ],
      "name": "CreateStream",
      "type": "event"
    },
    {
      "anonymous": false,
      "inputs": [
        {
          "indexed": true,
          "internalType": "address",
          "name": "fundsAdmin",
          "type": "address"
        }
      ],
      "name": "NewFundsAdmin",
      "type": "event"
    },
    {
      "anonymous": false,
      "inputs": [
        {
          "indexed": true,
          "internalType": "uint256",
          "name": "streamId",
          "type": "uint256"
        },
        {
          "indexed": true,
          "internalType": "address",
          "name": "recipient",
          "type": "address"
        },
        {
          "indexed": false,
          "internalType": "uint256",
          "name": "amount",
          "type": "uint256"
        }
      ],
      "name": "WithdrawFromStream",
      "type": "event"
    },
    {
      "inputs": [],
      "name": "ETH_MOCK_ADDRESS",
      "outputs": [
        {
          "internalType": "address",
          "name": "",
          "type": "address"
        }
      ],
      "stateMutability": "view",
      "type": "function"
    },
    {
      "inputs": [],
      "name": "REVISION",
      "outputs": [
        {
          "internalType": "uint256",
          "name": "",
          "type": "uint256"
        }
      ],
      "stateMutability": "view",
      "type": "function"
    },
    {
      "inputs": [
        {
          "internalType": "contract IERC20",
          "name": "token",
          "type": "address"
        },
        {
          "internalType": "address",
          "name": "recipient",
          "type": "address"
        },
        {
          "internalType": "uint256",
          "name": "amount",
          "type": "uint256"
        }
      ],
      "name": "approve",
      "outputs": [],
      "stateMutability": "nonpayable",
      "type": "function"
    },
    {
      "inputs": [
        {
          "internalType": "uint256",
          "name": "streamId",
          "type": "uint256"
        },
        {
          "internalType": "address",
          "name": "who",
          "type": "address"
        }
      ],
      "name": "balanceOf",
      "outputs": [
        {
          "internalType": "uint256",
          "name": "balance",
          "type": "uint256"
        }
      ],
      "stateMutability": "view",
      "type": "function"
    },
    {
      "inputs": [
        {
          "internalType": "uint256",
          "name": "streamId",
          "type": "uint256"
        }
      ],
      "name": "cancelStream",
      "outputs": [
        {
          "internalType": "bool",
          "name": "",
          "type": "bool"
        }
      ],
      "stateMutability": "nonpayable",
      "type": "function"
    },
    {
      "inputs": [
        {
          "internalType": "address",
          "name": "recipient",
          "type": "address"
        },
        {
          "internalType": "uint256",
          "name": "deposit",
          "type": "uint256"
        },
        {
          "internalType": "address",
          "name": "tokenAddress",
          "type": "address"
        },
        {
          "internalType": "uint256",
          "name": "startTime",
          "type": "uint256"
        },
        {
          "internalType": "uint256",
          "name": "stopTime",
          "type": "uint256"
        }
      ],
      "name": "createStream",
      "outputs": [
        {
          "internalType": "uint256",
          "name": "",
          "type": "uint256"
        }
      ],
      "stateMutability": "nonpayable",
      "type": "function"
    },
    {
      "inputs": [
        {
          "internalType": "uint256",
          "name": "streamId",
          "type": "uint256"
        }
      ],
      "name": "deltaOf",
      "outputs": [
        {
          "internalType": "uint256",
          "name": "delta",
          "type": "uint256"
        }
      ],
      "stateMutability": "view",
      "type": "function"
    },
    {
      "inputs": [],
      "name": "getFundsAdmin",
      "outputs": [
        {
          "internalType": "address",
          "name": "",
          "type": "address"
        }
      ],
      "stateMutability": "view",
      "type": "function"
    },
    {
      "inputs": [],
      "name": "getNextStreamId",
      "outputs": [
        {
          "internalType": "uint256",
          "name": "",
          "type": "uint256"
        }
      ],
      "stateMutability": "view",
      "type": "function"
    },
    {
      "inputs": [
        {
          "internalType": "uint256",
          "name": "streamId",
          "type": "uint256"
        }
      ],
      "name": "getStream",
      "outputs": [
        {
          "internalType": "address",
          "name": "sender",
          "type": "address"
        },
        {
          "internalType": "address",
          "name": "recipient",
          "type": "address"
        },
        {
          "internalType": "uint256",
          "name": "deposit",
          "type": "uint256"
        },
        {
          "internalType": "address",
          "name": "tokenAddress",
          "type": "address"
        },
        {
          "internalType": "uint256",
          "name": "startTime",
          "type": "uint256"
        },
        {
          "internalType": "uint256",
          "name": "stopTime",
          "type": "uint256"
        },
        {
          "internalType": "uint256",
          "name": "remainingBalance",
          "type": "uint256"
        },
        {
          "internalType": "uint256",
          "name": "ratePerSecond",
          "type": "uint256"
        }
      ],
      "stateMutability": "view",
      "type": "function"
    },
    {
      "inputs": [
        {
          "internalType": "address",
          "name": "fundsAdmin",
          "type": "address"
        }
      ],
      "name": "initialize",
      "outputs": [],
      "stateMutability": "nonpayable",
      "type": "function"
    },
    {
      "inputs": [
        {
          "internalType": "contract IERC20",
          "name": "token",
          "type": "address"
        },
        {
          "internalType": "address",
          "name": "recipient",
          "type": "address"
        },
        {
          "internalType": "uint256",
          "name": "amount",
          "type": "uint256"
        }
      ],
      "name": "transfer",
      "outputs": [],
      "stateMutability": "nonpayable",
      "type": "function"
    },
    {
      "inputs": [
        {
          "internalType": "uint256",
          "name": "streamId",
          "type": "uint256"
        },
        {
          "internalType": "uint256",
          "name": "amount",
          "type": "uint256"
        }
      ],
      "name": "withdrawFromStream",
      "outputs": [
        {
          "internalType": "bool",
          "name": "",
          "type": "bool"
        }
      ],
      "stateMutability": "nonpayable",
      "type": "function"
    },
    {
      "stateMutability": "payable",
      "type": "receive"
    }
  ],
  "transactionHash": "0xf1024326203a7a391b9796850be71bb8b32502b3e5aaa492158a0e7968b4d147",
  "args": [],
  "numDeployments": 1,
  "solcInputHash": "f83ccc030186e5b58439131350431de3",
  "bytecode": "0x60806040526000805534801561001457600080fd5b506001603455612536806100296000396000f3fe6080604052600436106100d65760003560e01c8063894e9a0d1161007f578063c4d66de811610059578063c4d66de8146102a4578063cc1b4bf6146102c4578063dde43cba146102e4578063e1f21c67146102f957600080fd5b8063894e9a0d146101ea578063a82ccd4d14610262578063beabacc81461028257600080fd5b806351ee886b116100b057806351ee886b146101725780636db9241b1461019a5780637a9b2c6c146101ca57600080fd5b806306bc2ee0146100e25780630932f92b146101335780633656eec21461015257600080fd5b366100dd57005b600080fd5b3480156100ee57600080fd5b5060335473ffffffffffffffffffffffffffffffffffffffff165b60405173ffffffffffffffffffffffffffffffffffffffff90911681526020015b60405180910390f35b34801561013f57600080fd5b506035545b60405190815260200161012a565b34801561015e57600080fd5b5061014461016d3660046121fa565b610319565b34801561017e57600080fd5b5061010973eeeeeeeeeeeeeeeeeeeeeeeeeeeeeeeeeeeeeeee81565b3480156101a657600080fd5b506101ba6101b536600461222a565b610573565b604051901515815260200161012a565b3480156101d657600080fd5b506101ba6101e5366004612243565b610972565b3480156101f657600080fd5b5061020a61020536600461222a565b610e5c565b6040805173ffffffffffffffffffffffffffffffffffffffff998a1681529789166020890152870195909552959092166060850152608084015260a083015260c082019290925260e08101919091526101000161012a565b34801561026e57600080fd5b5061014461027d36600461222a565b610f5c565b34801561028e57600080fd5b506102a261029d366004612265565b6110f0565b005b3480156102b057600080fd5b506102a26102bf3660046122a6565b611266565b3480156102d057600080fd5b506101446102df3660046122c3565b611313565b3480156102f057600080fd5b50610144600181565b34801561030557600080fd5b506102a2610314366004612265565b611a06565b600082815260366020526040812060070154839074010000000000000000000000000000000000000000900460ff166103b3576040517f08c379a000000000000000000000000000000000000000000000000000000000815260206004820152601560248201527f73747265616d20646f6573206e6f74206578697374000000000000000000000060448201526064015b60405180910390fd5b600084815260366020908152604080832081516101208101835281548152600182015481850152600282015481840152600382015460608083019190915260048301546080830152600583015473ffffffffffffffffffffffffffffffffffffffff90811660a08401526006840154811660c084015260079093015492831660e08301527401000000000000000000000000000000000000000090920460ff161515610100820152825191820183528482529281018490529081019290925290600061047e87610f5c565b90508260200151816104909190612344565b82526040830151835111156104c657604083015183516104b09190612381565b6020830181905282516104c39190612381565b82525b8260a0015173ffffffffffffffffffffffffffffffffffffffff168673ffffffffffffffffffffffffffffffffffffffff161415610509575051925061056c9050565b8260c0015173ffffffffffffffffffffffffffffffffffffffff168673ffffffffffffffffffffffffffffffffffffffff16141561056457815160408401516105529190612381565b604090920182905250925061056c9050565b600094505050505b5092915050565b6000600260345414156105e2576040517f08c379a000000000000000000000000000000000000000000000000000000000815260206004820152601f60248201527f5265656e7472616e637947756172643a207265656e7472616e742063616c6c0060448201526064016103aa565b6002603455600082815260366020526040902060070154829074010000000000000000000000000000000000000000900460ff1661067c576040517f08c379a000000000000000000000000000000000000000000000000000000000815260206004820152601560248201527f73747265616d20646f6573206e6f74206578697374000000000000000000000060448201526064016103aa565b603354839073ffffffffffffffffffffffffffffffffffffffff163314806106ca575060008181526036602052604090206005015473ffffffffffffffffffffffffffffffffffffffff1633145b610756576040517f08c379a000000000000000000000000000000000000000000000000000000000815260206004820152603c60248201527f63616c6c6572206973206e6f74207468652066756e64732061646d696e206f7260448201527f2074686520726563697069656e74206f66207468652073747265616d0000000060648201526084016103aa565b6000848152603660209081526040808320815161012081018352815481526001820154938101939093526002810154918301919091526003810154606083015260048101546080830152600581015473ffffffffffffffffffffffffffffffffffffffff90811660a08401526006820154811660c0840181905260079092015490811660e084015274010000000000000000000000000000000000000000900460ff16151561010083015290919061080f908790610319565b90506000610821878460a00151610319565b600088815260366020526040812081815560018101829055600281018290556003810182905560048101919091556005810180547fffffffffffffffffffffffff0000000000000000000000000000000000000000908116909155600682018054909116905560070180547fffffffffffffffffffffff00000000000000000000000000000000000000000016905560e084015190915081156108e55760a08401516108e59073ffffffffffffffffffffffffffffffffffffffff83169084611aa8565b8360a0015173ffffffffffffffffffffffffffffffffffffffff168460c0015173ffffffffffffffffffffffffffffffffffffffff16897fca3e6079b726e7728802a0537949e2d1c7762304fa641fb06eb56daf2ba8c6b98686604051610956929190918252602082015260400190565b60405180910390a4600196505050505050506001603455919050565b6000600260345414156109e1576040517f08c379a000000000000000000000000000000000000000000000000000000000815260206004820152601f60248201527f5265656e7472616e637947756172643a207265656e7472616e742063616c6c0060448201526064016103aa565b6002603455600083815260366020526040902060070154839074010000000000000000000000000000000000000000900460ff16610a7b576040517f08c379a000000000000000000000000000000000000000000000000000000000815260206004820152601560248201527f73747265616d20646f6573206e6f74206578697374000000000000000000000060448201526064016103aa565b603354849073ffffffffffffffffffffffffffffffffffffffff16331480610ac9575060008181526036602052604090206005015473ffffffffffffffffffffffffffffffffffffffff1633145b610b55576040517f08c379a000000000000000000000000000000000000000000000000000000000815260206004820152603c60248201527f63616c6c6572206973206e6f74207468652066756e64732061646d696e206f7260448201527f2074686520726563697069656e74206f66207468652073747265616d0000000060648201526084016103aa565b60008411610bbf576040517f08c379a000000000000000000000000000000000000000000000000000000000815260206004820152600e60248201527f616d6f756e74206973207a65726f00000000000000000000000000000000000060448201526064016103aa565b6000858152603660209081526040808320815161012081018352815481526001820154938101939093526002810154918301919091526003810154606083015260048101546080830152600581015473ffffffffffffffffffffffffffffffffffffffff90811660a084018190526006830154821660c085015260079092015490811660e084015274010000000000000000000000000000000000000000900460ff161515610100830152909190610c78908890610319565b905085811015610d09576040517f08c379a0000000000000000000000000000000000000000000000000000000008152602060048201526024808201527f616d6f756e7420657863656564732074686520617661696c61626c652062616c60448201527f616e63650000000000000000000000000000000000000000000000000000000060648201526084016103aa565b858260400151610d199190612381565b6000888152603660205260409020600201819055610dc157600087815260366020526040812081815560018101829055600281018290556003810182905560048101919091556005810180547fffffffffffffffffffffffff0000000000000000000000000000000000000000908116909155600682018054909116905560070180547fffffffffffffffffffffff0000000000000000000000000000000000000000001690555b610df48260a00151878460e0015173ffffffffffffffffffffffffffffffffffffffff16611aa89092919063ffffffff16565b8160a0015173ffffffffffffffffffffffffffffffffffffffff16877f36c3ab437e6a424ed25dc4bfdeb62706aa06558660fab2dab229d2555adaf89c88604051610e4191815260200190565b60405180910390a36001945050505050600160345592915050565b600080600080600080600080886036600082815260200190815260200160002060070160149054906101000a900460ff16610ef3576040517f08c379a000000000000000000000000000000000000000000000000000000000815260206004820152601560248201527f73747265616d20646f6573206e6f74206578697374000000000000000000000060448201526064016103aa565b50505060009687525050603660205250506040909220600681015460058201548254600784015460038501546004860154600287015460019097015473ffffffffffffffffffffffffffffffffffffffff9687169a958716995093975091909416949092909190565b600081815260366020526040812060070154829074010000000000000000000000000000000000000000900460ff16610ff1576040517f08c379a000000000000000000000000000000000000000000000000000000000815260206004820152601560248201527f73747265616d20646f6573206e6f74206578697374000000000000000000000060448201526064016103aa565b6000838152603660209081526040918290208251610120810184528154815260018201549281019290925260028101549282019290925260038201546060820181905260048301546080830152600583015473ffffffffffffffffffffffffffffffffffffffff90811660a08401526006840154811660c084015260079093015492831660e08301527401000000000000000000000000000000000000000090920460ff1615156101008201529042116110af5760009250506110ea565b80608001514210156110d25760608101516110ca9042612381565b9250506110ea565b806060015181608001516110e69190612381565b9250505b50919050565b60335473ffffffffffffffffffffffffffffffffffffffff163314611171576040517f08c379a000000000000000000000000000000000000000000000000000000000815260206004820152601360248201527f4f4e4c595f42595f46554e44535f41444d494e0000000000000000000000000060448201526064016103aa565b73ffffffffffffffffffffffffffffffffffffffff82166111ee576040517f08c379a000000000000000000000000000000000000000000000000000000000815260206004820152601460248201527f494e56414c49445f30585f524543495049454e5400000000000000000000000060448201526064016103aa565b73ffffffffffffffffffffffffffffffffffffffff831673eeeeeeeeeeeeeeeeeeeeeeeeeeeeeeeeeeeeeeee14156112455761124073ffffffffffffffffffffffffffffffffffffffff831682611b7c565b505050565b61124073ffffffffffffffffffffffffffffffffffffffff84168383611aa8565b60005460019081116112fa576040517f08c379a000000000000000000000000000000000000000000000000000000000815260206004820152602e60248201527f436f6e747261637420696e7374616e63652068617320616c726561647920626560448201527f656e20696e697469616c697a656400000000000000000000000000000000000060648201526084016103aa565b6000819055620186a060355561130f82611cd6565b5050565b60335460009073ffffffffffffffffffffffffffffffffffffffff163314611397576040517f08c379a000000000000000000000000000000000000000000000000000000000815260206004820152601360248201527f4f4e4c595f42595f46554e44535f41444d494e0000000000000000000000000060448201526064016103aa565b73ffffffffffffffffffffffffffffffffffffffff8616611414576040517f08c379a000000000000000000000000000000000000000000000000000000000815260206004820152601a60248201527f73747265616d20746f20746865207a65726f206164647265737300000000000060448201526064016103aa565b73ffffffffffffffffffffffffffffffffffffffff8616301415611494576040517f08c379a000000000000000000000000000000000000000000000000000000000815260206004820152601d60248201527f73747265616d20746f2074686520636f6e747261637420697473656c6600000060448201526064016103aa565b73ffffffffffffffffffffffffffffffffffffffff8616331415611514576040517f08c379a000000000000000000000000000000000000000000000000000000000815260206004820152601460248201527f73747265616d20746f207468652063616c6c657200000000000000000000000060448201526064016103aa565b6000851161157e576040517f08c379a000000000000000000000000000000000000000000000000000000000815260206004820152600f60248201527f6465706f736974206973207a65726f000000000000000000000000000000000060448201526064016103aa565b4283101561160e576040517f08c379a000000000000000000000000000000000000000000000000000000000815260206004820152602160248201527f73746172742074696d65206265666f726520626c6f636b2e74696d657374616d60448201527f700000000000000000000000000000000000000000000000000000000000000060648201526084016103aa565b828211611677576040517f08c379a000000000000000000000000000000000000000000000000000000000815260206004820152601f60248201527f73746f702074696d65206265666f7265207468652073746172742074696d650060448201526064016103aa565b60408051808201909152600080825260208201526116958484612381565b808252861015611701576040517f08c379a000000000000000000000000000000000000000000000000000000000815260206004820152601f60248201527f6465706f73697420736d616c6c6572207468616e2074696d652064656c74610060448201526064016103aa565b805161170d90876123c7565b1561179a576040517f08c379a000000000000000000000000000000000000000000000000000000000815260206004820152602260248201527f6465706f736974206e6f74206d756c7469706c65206f662074696d652064656c60448201527f746100000000000000000000000000000000000000000000000000000000000060648201526084016103aa565b80516117a690876123db565b81602001818152505060006035549050604051806101200160405280888152602001836020015181526020018881526020018681526020018581526020018973ffffffffffffffffffffffffffffffffffffffff1681526020013073ffffffffffffffffffffffffffffffffffffffff1681526020018773ffffffffffffffffffffffffffffffffffffffff1681526020016001151581525060366000838152602001908152602001600020600082015181600001556020820151816001015560408201518160020155606082015181600301556080820151816004015560a08201518160050160006101000a81548173ffffffffffffffffffffffffffffffffffffffff021916908373ffffffffffffffffffffffffffffffffffffffff16021790555060c08201518160060160006101000a81548173ffffffffffffffffffffffffffffffffffffffff021916908373ffffffffffffffffffffffffffffffffffffffff16021790555060e08201518160070160006101000a81548173ffffffffffffffffffffffffffffffffffffffff021916908373ffffffffffffffffffffffffffffffffffffffff1602179055506101008201518160070160146101000a81548160ff02191690831515021790555090505060356000815480929190611990906123ef565b90915550506040805188815273ffffffffffffffffffffffffffffffffffffffff88811660208301529181018790526060810186905290891690309083907f7b01d409597969366dc268d7f957a990d1ca3d3449baf8fb45db67351aecfe789060800160405180910390a4979650505050505050565b60335473ffffffffffffffffffffffffffffffffffffffff163314611a87576040517f08c379a000000000000000000000000000000000000000000000000000000000815260206004820152601360248201527f4f4e4c595f42595f46554e44535f41444d494e0000000000000000000000000060448201526064016103aa565b61124073ffffffffffffffffffffffffffffffffffffffff84168383611d45565b60405173ffffffffffffffffffffffffffffffffffffffff83166024820152604481018290526112409084907fa9059cbb00000000000000000000000000000000000000000000000000000000906064015b604080517fffffffffffffffffffffffffffffffffffffffffffffffffffffffffffffffe08184030181529190526020810180517bffffffffffffffffffffffffffffffffffffffffffffffffffffffff167fffffffff0000000000000000000000000000000000000000000000000000000090931692909217909152611ec7565b80471015611be6576040517f08c379a000000000000000000000000000000000000000000000000000000000815260206004820152601d60248201527f416464726573733a20696e73756666696369656e742062616c616e636500000060448201526064016103aa565b60008273ffffffffffffffffffffffffffffffffffffffff168260405160006040518083038185875af1925050503d8060008114611c40576040519150601f19603f3d011682016040523d82523d6000602084013e611c45565b606091505b5050905080611240576040517f08c379a000000000000000000000000000000000000000000000000000000000815260206004820152603a60248201527f416464726573733a20756e61626c6520746f2073656e642076616c75652c207260448201527f6563697069656e74206d6179206861766520726576657274656400000000000060648201526084016103aa565b603380547fffffffffffffffffffffffff00000000000000000000000000000000000000001673ffffffffffffffffffffffffffffffffffffffff83169081179091556040517f1ab77a654795da4cfe37c33188e862203ade9a5c7f1a9d4957669b3ccbec9e1190600090a250565b801580611de557506040517fdd62ed3e00000000000000000000000000000000000000000000000000000000815230600482015273ffffffffffffffffffffffffffffffffffffffff838116602483015284169063dd62ed3e90604401602060405180830381865afa158015611dbf573d6000803e3d6000fd5b505050506040513d601f19601f82011682018060405250810190611de39190612428565b155b611e71576040517f08c379a000000000000000000000000000000000000000000000000000000000815260206004820152603660248201527f5361666545524332303a20617070726f76652066726f6d206e6f6e2d7a65726f60448201527f20746f206e6f6e2d7a65726f20616c6c6f77616e63650000000000000000000060648201526084016103aa565b60405173ffffffffffffffffffffffffffffffffffffffff83166024820152604481018290526112409084907f095ea7b30000000000000000000000000000000000000000000000000000000090606401611afa565b6000611f29826040518060400160405280602081526020017f5361666545524332303a206c6f772d6c6576656c2063616c6c206661696c65648152508573ffffffffffffffffffffffffffffffffffffffff16611fd39092919063ffffffff16565b8051909150156112405780806020019051810190611f479190612441565b611240576040517f08c379a000000000000000000000000000000000000000000000000000000000815260206004820152602a60248201527f5361666545524332303a204552433230206f7065726174696f6e20646964206e60448201527f6f7420737563636565640000000000000000000000000000000000000000000060648201526084016103aa565b6060611fe28484600085611fec565b90505b9392505050565b60608247101561207e576040517f08c379a000000000000000000000000000000000000000000000000000000000815260206004820152602660248201527f416464726573733a20696e73756666696369656e742062616c616e636520666f60448201527f722063616c6c000000000000000000000000000000000000000000000000000060648201526084016103aa565b73ffffffffffffffffffffffffffffffffffffffff85163b6120fc576040517f08c379a000000000000000000000000000000000000000000000000000000000815260206004820152601d60248201527f416464726573733a2063616c6c20746f206e6f6e2d636f6e747261637400000060448201526064016103aa565b6000808673ffffffffffffffffffffffffffffffffffffffff1685876040516121259190612493565b60006040518083038185875af1925050503d8060008114612162576040519150601f19603f3d011682016040523d82523d6000602084013e612167565b606091505b5091509150612177828286612182565b979650505050505050565b60608315612191575081611fe5565b8251156121a15782518084602001fd5b816040517f08c379a00000000000000000000000000000000000000000000000000000000081526004016103aa91906124af565b73ffffffffffffffffffffffffffffffffffffffff811681146121f757600080fd5b50565b6000806040838503121561220d57600080fd5b82359150602083013561221f816121d5565b809150509250929050565b60006020828403121561223c57600080fd5b5035919050565b6000806040838503121561225657600080fd5b50508035926020909101359150565b60008060006060848603121561227a57600080fd5b8335612285816121d5565b92506020840135612295816121d5565b929592945050506040919091013590565b6000602082840312156122b857600080fd5b8135611fe5816121d5565b600080600080600060a086880312156122db57600080fd5b85356122e6816121d5565b94506020860135935060408601356122fd816121d5565b94979396509394606081013594506080013592915050565b7f4e487b7100000000000000000000000000000000000000000000000000000000600052601160045260246000fd5b6000817fffffffffffffffffffffffffffffffffffffffffffffffffffffffffffffffff048311821515161561237c5761237c612315565b500290565b60008282101561239357612393612315565b500390565b7f4e487b7100000000000000000000000000000000000000000000000000000000600052601260045260246000fd5b6000826123d6576123d6612398565b500690565b6000826123ea576123ea612398565b500490565b60007fffffffffffffffffffffffffffffffffffffffffffffffffffffffffffffffff82141561242157612421612315565b5060010190565b60006020828403121561243a57600080fd5b5051919050565b60006020828403121561245357600080fd5b81518015158114611fe557600080fd5b60005b8381101561247e578181015183820152602001612466565b8381111561248d576000848401525b50505050565b600082516124a5818460208701612463565b9190910192915050565b60208152600082518060208401526124ce816040850160208701612463565b601f017fffffffffffffffffffffffffffffffffffffffffffffffffffffffffffffffe016919091016040019291505056fea26469706673582212202205885b7d7a951becfcc0dcbf469c5a21607e75efdbb2e37d240e8dc2821c7c64736f6c634300080a0033",
  "devdoc": {
    "author": "BGD Labs*",
    "kind": "dev",
    "methods": {
      "approve(address,address,uint256)": {
        "details": "Function for the funds admin to give ERC20 allowance to other parties",
        "params": {
          "amount": "Allowance to approve*",
          "recipient": "Allowance's recipient",
          "token": "The address of the token to give allowance from"
        }
      },
      "balanceOf(uint256,address)": {
        "details": "Throws if the id does not point to a valid stream.",
        "params": {
          "streamId": "The id of the stream for which to query the balance.",
          "who": "The address for which to query the balance."
        }
      },
      "cancelStream(uint256)": {
        "details": "Throws if the id does not point to a valid stream.  Throws if the caller is not the funds admin or the recipient of the stream.  Throws if there is a token transfer failure.",
        "params": {
          "streamId": "The id of the stream to cancel."
        }
      },
      "createStream(address,uint256,address,uint256,uint256)": {
        "details": "Throws if the recipient is the zero address, the contract itself or the caller.  Throws if the deposit is 0.  Throws if the start time is before `block.timestamp`.  Throws if the stop time is before the start time.  Throws if the duration calculation has a math error.  Throws if the deposit is smaller than the duration.  Throws if the deposit is not a multiple of the duration.  Throws if the rate calculation has a math error.  Throws if the next stream id calculation has a math error.  Throws if the contract is not allowed to transfer enough tokens.  Throws if there is a token transfer failure.",
        "params": {
          "deposit": "The amount of money to be streamed.",
          "recipient": "The address towards which the money is streamed.",
          "startTime": "The unix timestamp for when the stream starts.",
          "stopTime": "The unix timestamp for when the stream stops.",
          "tokenAddress": "The ERC20 token to use as streaming currency."
        }
      },
      "deltaOf(uint256)": {
        "details": "Throws if the id does not point to a valid stream.",
        "params": {
          "streamId": "The id of the stream for which to query the delta."
        }
      },
      "getFundsAdmin()": {
        "returns": {
          "_0": "address The address of the funds admin*"
        }
      },
      "getStream(uint256)": {
        "details": "Throws if the id does not point to a valid stream.",
        "params": {
          "streamId": "The id of the stream to query."
        }
      },
      "transfer(address,address,uint256)": {
        "params": {
          "amount": "Amount to transfer*",
          "recipient": "Transfer's recipient",
          "token": "The address of the token to transfer"
        }
      },
      "withdrawFromStream(uint256,uint256)": {
        "details": "Throws if the id does not point to a valid stream.  Throws if the caller is not the funds admin or the recipient of the stream.  Throws if the amount exceeds the available balance.  Throws if there is a token transfer failure.",
        "params": {
          "amount": "The amount of tokens to withdraw.",
          "streamId": "The id of the stream to withdraw tokens from."
        }
      }
    },
    "title": "AaveEcosystemReserve v2",
    "version": 1
  },
  "userdoc": {
    "events": {
      "NewFundsAdmin(address)": {
        "notice": "Emitted when the funds admin changes"
      }
    },
    "kind": "user",
    "methods": {
      "ETH_MOCK_ADDRESS()": {
        "notice": "Returns the mock ETH reference address"
      },
      "balanceOf(uint256,address)": {
        "notice": "Returns the available funds for the given stream id and address.Returns the total funds allocated to `who` as uint256."
      },
      "cancelStream(uint256)": {
        "notice": "Cancels the stream and transfers the tokens back on a pro rata basis.Returns bool true=success, otherwise false."
      },
      "createStream(address,uint256,address,uint256,uint256)": {
        "notice": "Creates a new stream funded by this contracts itself and paid towards `recipient`.Returns the uint256 id of the newly created stream."
      },
      "deltaOf(uint256)": {
        "notice": "Returns either the delta in seconds between `block.timestamp` and `startTime` or  between `stopTime` and `startTime, whichever is smaller. If `block.timestamp` is before  `startTime`, it returns 0.Returns the time delta in seconds."
      },
      "getFundsAdmin()": {
        "notice": "Return the funds admin, only entity to be able to interact with this contract (controller of reserve)"
      },
      "getNextStreamId()": {
        "notice": "Returns the next available stream idReturns the stream id."
      },
      "getStream(uint256)": {
        "notice": "Returns the stream with all its properties.Returns the stream object."
      },
      "transfer(address,address,uint256)": {
        "notice": "Function for the funds admin to transfer ERC20 tokens to other parties"
      },
      "withdrawFromStream(uint256,uint256)": {
        "notice": "Withdraws from the contract to the recipient's account."
      }
    },
    "notice": "Stores ERC20 tokens of an ecosystem reserve, adding streaming capabilities. Modification of Sablier https://github.com/sablierhq/sablier/blob/develop/packages/protocol/contracts/Sablier.sol Original can be found also deployed on https://etherscan.io/address/0xCD18eAa163733Da39c232722cBC4E8940b1D8888 Modifications: - Sablier \"pulls\" the funds from the creator of the stream at creation. In the Aave case, we already have the funds. - Anybody can create streams on Sablier. Here, only the funds admin (Aave governance via controller) can - Adapted codebase to Solidity 0.8.11, mainly removing SafeMath and CarefulMath to use native safe math - Same as with creation, on Sablier the `sender` and `recipient` can cancel a stream. Here, only fund admin and recipient",
    "version": 1
  },
  "storageLayout": {
    "storage": [
      {
        "astId": 42865,
        "contract": "@aave/periphery-v3/contracts/treasury/AaveEcosystemReserveV2.sol:AaveEcosystemReserveV2",
        "label": "lastInitializedRevision",
        "offset": 0,
        "slot": "0",
        "type": "t_uint256"
      },
      {
        "astId": 42896,
        "contract": "@aave/periphery-v3/contracts/treasury/AaveEcosystemReserveV2.sol:AaveEcosystemReserveV2",
        "label": "______gap",
        "offset": 0,
        "slot": "1",
        "type": "t_array(t_uint256)50_storage"
      },
      {
        "astId": 41673,
        "contract": "@aave/periphery-v3/contracts/treasury/AaveEcosystemReserveV2.sol:AaveEcosystemReserveV2",
        "label": "_fundsAdmin",
        "offset": 0,
        "slot": "51",
        "type": "t_address"
      },
      {
        "astId": 42603,
        "contract": "@aave/periphery-v3/contracts/treasury/AaveEcosystemReserveV2.sol:AaveEcosystemReserveV2",
        "label": "_status",
        "offset": 0,
        "slot": "52",
        "type": "t_uint256"
      },
      {
        "astId": 41024,
        "contract": "@aave/periphery-v3/contracts/treasury/AaveEcosystemReserveV2.sol:AaveEcosystemReserveV2",
        "label": "_nextStreamId",
        "offset": 0,
        "slot": "53",
        "type": "t_uint256"
      },
      {
        "astId": 41030,
        "contract": "@aave/periphery-v3/contracts/treasury/AaveEcosystemReserveV2.sol:AaveEcosystemReserveV2",
        "label": "_streams",
        "offset": 0,
        "slot": "54",
        "type": "t_mapping(t_uint256,t_struct(Stream)42194_storage)"
      }
    ],
    "types": {
      "t_address": {
        "encoding": "inplace",
        "label": "address",
        "numberOfBytes": "20"
      },
      "t_array(t_uint256)50_storage": {
        "base": "t_uint256",
        "encoding": "inplace",
        "label": "uint256[50]",
        "numberOfBytes": "1600"
      },
      "t_bool": {
        "encoding": "inplace",
        "label": "bool",
        "numberOfBytes": "1"
      },
      "t_mapping(t_uint256,t_struct(Stream)42194_storage)": {
        "encoding": "mapping",
        "key": "t_uint256",
        "label": "mapping(uint256 => struct IStreamable.Stream)",
        "numberOfBytes": "32",
        "value": "t_struct(Stream)42194_storage"
      },
      "t_struct(Stream)42194_storage": {
        "encoding": "inplace",
        "label": "struct IStreamable.Stream",
        "members": [
          {
            "astId": 42177,
            "contract": "@aave/periphery-v3/contracts/treasury/AaveEcosystemReserveV2.sol:AaveEcosystemReserveV2",
            "label": "deposit",
            "offset": 0,
            "slot": "0",
            "type": "t_uint256"
          },
          {
            "astId": 42179,
            "contract": "@aave/periphery-v3/contracts/treasury/AaveEcosystemReserveV2.sol:AaveEcosystemReserveV2",
            "label": "ratePerSecond",
            "offset": 0,
            "slot": "1",
            "type": "t_uint256"
          },
          {
            "astId": 42181,
            "contract": "@aave/periphery-v3/contracts/treasury/AaveEcosystemReserveV2.sol:AaveEcosystemReserveV2",
            "label": "remainingBalance",
            "offset": 0,
            "slot": "2",
            "type": "t_uint256"
          },
          {
            "astId": 42183,
            "contract": "@aave/periphery-v3/contracts/treasury/AaveEcosystemReserveV2.sol:AaveEcosystemReserveV2",
            "label": "startTime",
            "offset": 0,
            "slot": "3",
            "type": "t_uint256"
          },
          {
            "astId": 42185,
            "contract": "@aave/periphery-v3/contracts/treasury/AaveEcosystemReserveV2.sol:AaveEcosystemReserveV2",
            "label": "stopTime",
            "offset": 0,
            "slot": "4",
            "type": "t_uint256"
          },
          {
            "astId": 42187,
            "contract": "@aave/periphery-v3/contracts/treasury/AaveEcosystemReserveV2.sol:AaveEcosystemReserveV2",
            "label": "recipient",
            "offset": 0,
            "slot": "5",
            "type": "t_address"
          },
          {
            "astId": 42189,
            "contract": "@aave/periphery-v3/contracts/treasury/AaveEcosystemReserveV2.sol:AaveEcosystemReserveV2",
            "label": "sender",
            "offset": 0,
            "slot": "6",
            "type": "t_address"
          },
          {
            "astId": 42191,
            "contract": "@aave/periphery-v3/contracts/treasury/AaveEcosystemReserveV2.sol:AaveEcosystemReserveV2",
            "label": "tokenAddress",
            "offset": 0,
            "slot": "7",
            "type": "t_address"
          },
          {
            "astId": 42193,
            "contract": "@aave/periphery-v3/contracts/treasury/AaveEcosystemReserveV2.sol:AaveEcosystemReserveV2",
            "label": "isEntity",
            "offset": 20,
            "slot": "7",
            "type": "t_bool"
          }
        ],
        "numberOfBytes": "256"
      },
      "t_uint256": {
        "encoding": "inplace",
        "label": "uint256",
        "numberOfBytes": "32"
      }
    }
  }
}